{
  "_format": "hh-sol-artifact-1",
  "contractName": "L1_Bridge",
  "sourceName": "contracts/bridges/L1_Bridge.sol",
  "abi": [
    {
      "inputs": [
        {
          "internalType": "contract IERC20",
          "name": "_token",
          "type": "address"
        }
      ],
      "stateMutability": "nonpayable",
      "type": "constructor"
    },
    {
      "anonymous": false,
      "inputs": [
        {
          "indexed": false,
          "internalType": "bytes32",
          "name": "root",
          "type": "bytes32"
        },
        {
          "indexed": false,
          "internalType": "uint256",
          "name": "amount",
          "type": "uint256"
        }
      ],
      "name": "DepositsCommitted",
      "type": "event"
    },
    {
      "anonymous": false,
      "inputs": [
        {
          "indexed": false,
          "internalType": "bytes32",
          "name": "root",
          "type": "bytes32"
        },
        {
          "indexed": false,
          "internalType": "uint256",
          "name": "amount",
          "type": "uint256"
        }
      ],
      "name": "TransferRootBonded",
      "type": "event"
    },
    {
      "inputs": [
        {
          "internalType": "address",
          "name": "_recipient",
          "type": "address"
        },
        {
          "internalType": "uint256",
          "name": "_amount",
          "type": "uint256"
        },
        {
          "internalType": "uint256",
          "name": "_transferNonce",
          "type": "uint256"
        },
        {
          "internalType": "uint256",
          "name": "_relayerFee",
          "type": "uint256"
        },
        {
          "internalType": "bytes32",
          "name": "_transferRoot",
          "type": "bytes32"
        },
        {
          "internalType": "bytes32[]",
          "name": "_proof",
          "type": "bytes32[]"
        }
      ],
      "name": "_preWithdraw",
      "outputs": [],
      "stateMutability": "nonpayable",
      "type": "function"
    },
    {
      "inputs": [],
      "name": "amountChallenged",
      "outputs": [
        {
          "internalType": "uint256",
          "name": "",
          "type": "uint256"
        }
      ],
      "stateMutability": "view",
      "type": "function"
    },
    {
      "inputs": [
        {
          "internalType": "bytes32",
          "name": "_transferRootHash",
          "type": "bytes32"
        },
        {
          "internalType": "bytes32[]",
          "name": "_layerIds",
          "type": "bytes32[]"
        },
        {
          "internalType": "uint256[]",
          "name": "_layerAmounts",
          "type": "uint256[]"
        }
      ],
      "name": "bondTransferRoot",
      "outputs": [],
      "stateMutability": "nonpayable",
      "type": "function"
    },
    {
      "inputs": [
        {
          "internalType": "bytes32",
          "name": "_transferRootHash",
          "type": "bytes32"
        }
      ],
      "name": "challengeTransferBond",
      "outputs": [],
      "stateMutability": "nonpayable",
      "type": "function"
    },
    {
      "inputs": [],
      "name": "committee",
      "outputs": [
        {
          "internalType": "address",
          "name": "",
          "type": "address"
        }
      ],
      "stateMutability": "view",
      "type": "function"
    },
    {
      "inputs": [],
      "name": "committeeBond",
      "outputs": [
        {
          "internalType": "uint256",
          "name": "",
          "type": "uint256"
        }
      ],
      "stateMutability": "view",
      "type": "function"
    },
    {
      "inputs": [
        {
          "internalType": "uint256",
          "name": "_amount",
          "type": "uint256"
        }
      ],
      "name": "committeeStake",
      "outputs": [],
      "stateMutability": "nonpayable",
      "type": "function"
    },
    {
      "inputs": [
        {
          "internalType": "uint256",
          "name": "_amount",
          "type": "uint256"
        }
      ],
      "name": "committeeUnstake",
      "outputs": [],
      "stateMutability": "nonpayable",
      "type": "function"
    },
    {
      "inputs": [
        {
          "internalType": "bytes32",
          "name": "_transferRootHash",
          "type": "bytes32"
        },
        {
          "internalType": "bytes32",
          "name": "_amountHash",
          "type": "bytes32"
        }
      ],
      "name": "confirmTransferRoot",
      "outputs": [],
      "stateMutability": "nonpayable",
      "type": "function"
    },
    {
      "inputs": [
        {
          "internalType": "bytes32[]",
          "name": "_layerIds",
          "type": "bytes32[]"
        },
        {
          "internalType": "uint256[]",
          "name": "_amounts",
          "type": "uint256[]"
        }
      ],
      "name": "getAmountHash",
      "outputs": [
        {
          "internalType": "bytes32",
          "name": "",
          "type": "bytes32"
        }
      ],
      "stateMutability": "pure",
      "type": "function"
    },
    {
      "inputs": [],
      "name": "getLayerId",
      "outputs": [
        {
          "internalType": "bytes32",
          "name": "",
          "type": "bytes32"
        }
      ],
      "stateMutability": "nonpayable",
      "type": "function"
    },
    {
      "inputs": [
        {
          "internalType": "string",
          "name": "_messengerLabel",
          "type": "string"
        }
      ],
      "name": "getMessengerId",
      "outputs": [
        {
          "internalType": "bytes32",
          "name": "",
          "type": "bytes32"
        }
      ],
      "stateMutability": "pure",
      "type": "function"
    },
    {
      "inputs": [
        {
          "internalType": "uint256",
          "name": "_time",
          "type": "uint256"
        }
      ],
      "name": "getTimeSlot",
      "outputs": [
        {
          "internalType": "uint256",
          "name": "",
          "type": "uint256"
        }
      ],
      "stateMutability": "pure",
      "type": "function"
    },
    {
      "inputs": [],
      "name": "getTotalBonded",
      "outputs": [
        {
          "internalType": "uint256",
          "name": "",
          "type": "uint256"
        }
      ],
      "stateMutability": "view",
      "type": "function"
    },
    {
      "inputs": [
        {
          "internalType": "uint256",
          "name": "_amount",
          "type": "uint256"
        }
      ],
      "name": "getTotalBondedWith",
      "outputs": [
        {
          "internalType": "uint256",
          "name": "",
          "type": "uint256"
        }
      ],
      "stateMutability": "view",
      "type": "function"
    },
    {
      "inputs": [
        {
          "internalType": "bytes32",
          "name": "_layerId",
          "type": "bytes32"
        },
        {
          "internalType": "address",
          "name": "_recipient",
          "type": "address"
        },
        {
          "internalType": "uint256",
          "name": "_amount",
          "type": "uint256"
        },
        {
          "internalType": "uint256",
          "name": "_transferNonce",
          "type": "uint256"
        },
        {
          "internalType": "uint256",
          "name": "_relayerFee",
          "type": "uint256"
        }
      ],
      "name": "getTransferHash",
      "outputs": [
        {
          "internalType": "bytes32",
          "name": "",
          "type": "bytes32"
        }
      ],
      "stateMutability": "pure",
      "type": "function"
    },
    {
      "inputs": [
        {
          "internalType": "bytes32",
          "name": "",
          "type": "bytes32"
        }
      ],
      "name": "l1Messenger",
      "outputs": [
        {
          "internalType": "contract ILayerWrapper",
          "name": "",
          "type": "address"
        }
      ],
      "stateMutability": "view",
      "type": "function"
    },
    {
      "inputs": [
        {
          "internalType": "bytes32",
          "name": "_transferRootHash",
          "type": "bytes32"
        }
      ],
      "name": "resolveChallenge",
      "outputs": [],
      "stateMutability": "nonpayable",
      "type": "function"
    },
    {
      "inputs": [
        {
          "internalType": "bytes32",
          "name": "_messengerId",
          "type": "bytes32"
        },
        {
          "internalType": "address",
          "name": "_recipient",
          "type": "address"
        },
        {
          "internalType": "uint256",
          "name": "_amount",
          "type": "uint256"
        }
      ],
      "name": "sendToL2",
      "outputs": [],
      "stateMutability": "nonpayable",
      "type": "function"
    },
    {
      "inputs": [
        {
          "internalType": "bytes32",
          "name": "_messengerId",
          "type": "bytes32"
        },
        {
          "internalType": "address",
          "name": "_recipient",
          "type": "address"
        },
        {
          "internalType": "uint256",
          "name": "_amount",
          "type": "uint256"
        },
        {
          "internalType": "uint256",
          "name": "_amountOutMin",
          "type": "uint256"
        }
      ],
      "name": "sendToL2AndAttemptSwap",
      "outputs": [],
      "stateMutability": "nonpayable",
      "type": "function"
    },
    {
      "inputs": [
        {
          "internalType": "bytes32",
          "name": "_messengerId",
          "type": "bytes32"
        },
        {
          "internalType": "contract ILayerWrapper",
          "name": "_l1Messenger",
          "type": "address"
        }
      ],
      "name": "setL1MessengerWrapper",
      "outputs": [],
      "stateMutability": "nonpayable",
      "type": "function"
    },
    {
      "inputs": [
        {
          "internalType": "bytes32",
          "name": "",
          "type": "bytes32"
        }
      ],
      "name": "spentTransferHashes",
      "outputs": [
        {
          "internalType": "bool",
          "name": "",
          "type": "bool"
        }
      ],
      "stateMutability": "view",
      "type": "function"
    },
    {
      "inputs": [
        {
          "internalType": "uint256",
          "name": "",
          "type": "uint256"
        }
      ],
      "name": "timeSlotToAmountBonded",
      "outputs": [
        {
          "internalType": "uint256",
          "name": "",
          "type": "uint256"
        }
      ],
      "stateMutability": "view",
      "type": "function"
    },
    {
      "inputs": [],
      "name": "token",
      "outputs": [
        {
          "internalType": "contract IERC20",
          "name": "",
          "type": "address"
        }
      ],
      "stateMutability": "view",
      "type": "function"
    },
    {
      "inputs": [
        {
          "internalType": "address",
          "name": "_recipient",
          "type": "address"
        },
        {
          "internalType": "uint256",
          "name": "_amount",
          "type": "uint256"
        },
        {
          "internalType": "uint256",
          "name": "_transferNonce",
          "type": "uint256"
        },
        {
          "internalType": "uint256",
          "name": "_relayerFee",
          "type": "uint256"
        },
        {
          "internalType": "bytes32",
          "name": "_transferRoot",
          "type": "bytes32"
        },
        {
          "internalType": "bytes32[]",
          "name": "_proof",
          "type": "bytes32[]"
        }
      ],
      "name": "withdraw",
      "outputs": [],
      "stateMutability": "nonpayable",
      "type": "function"
    }
  ],
  "bytecode": "0x60806040523480156200001157600080fd5b50604051620035ac380380620035ac833981810160405281019062000037919062000096565b80600260006101000a81548173ffffffffffffffffffffffffffffffffffffffff021916908373ffffffffffffffffffffffffffffffffffffffff1602179055505062000124565b60008151905062000090816200010a565b92915050565b600060208284031215620000a957600080fd5b6000620000b9848285016200007f565b91505092915050565b6000620000cf82620000ea565b9050919050565b6000620000e382620000c2565b9050919050565b600073ffffffffffffffffffffffffffffffffffffffff82169050919050565b6200011581620000d6565b81146200012157600080fd5b50565b61347880620001346000396000f3fe608060405234801561001057600080fd5b50600436106101735760003560e01c80637f620ce1116100de578063bd705de811610097578063d32c943a11610071578063d32c943a1461046c578063d864e74014610488578063dcd8e123146104a6578063fc0c546a146104c257610173565b8063bd705de8146103ee578063c86433e31461040c578063d012d8be1461043c57610173565b80637f620ce11461031e5780638d4609d71461033a57806393f964d71461036a578063a6e0a23014610386578063b285f05b146103a2578063b52a6f48146103be57610173565b80634794a2ef116101305780634794a2ef14610236578063551ecfec146102665780635638a48f146102845780635c50c356146102a05780636c4fa432146102be5780637bef2be4146102ee57610173565b8063014cb63d146101785780630a8da8a9146101945780630ba36683146101b05780631d0f6d21146101ce5780632b85dcc9146101ea57806346a5bec81461021a575b600080fd5b610192600480360381019061018d919061226c565b6104e0565b005b6101ae60048036038101906101a991906124f6565b610704565b005b6101b86107d4565b6040516101c5919061310c565b60405180910390f35b6101e860048036038101906101e391906124f6565b6107da565b005b61020460048036038101906101ff91906124f6565b610901565b604051610211919061310c565b60405180910390f35b610234600480360381019061022f9190612136565b610916565b005b610250600480360381019061024b91906124f6565b610940565b60405161025d919061310c565b60405180910390f35b61026e6109a0565b60405161027b919061310c565b60405180910390f35b61029e60048036038101906102999190612136565b6109a6565b005b6102a8610b81565b6040516102b5919061310c565b60405180910390f35b6102d860048036038101906102d391906121d7565b610c3a565b6040516102e59190612df1565b60405180910390f35b6103086004803603810190610303919061226c565b610c6d565b6040516103159190612ec5565b60405180910390f35b610338600480360381019061033391906122e4565b610ca0565b005b610354600480360381019061034f919061226c565b610e2a565b6040516103619190612dd6565b60405180910390f35b610384600480360381019061037f919061243d565b610e4a565b005b6103a0600480360381019061039b91906123be565b610ec9565b005b6103bc60048036038101906103b79190612295565b611323565b005b6103d860048036038101906103d391906124b5565b6114aa565b6040516103e59190612df1565b60405180910390f35b6103f66114da565b6040516104039190612df1565b60405180910390f35b61042660048036038101906104219190612347565b61151f565b6040516104339190612df1565b60405180910390f35b610456600480360381019061045191906124f6565b61155b565b604051610463919061310c565b60405180910390f35b6104866004803603810190610481919061226c565b611573565b005b61049061189e565b60405161049d9190612ced565b60405180910390f35b6104c060048036038101906104bb9190612479565b6118c4565b005b6104ca61191a565b6040516104d79190612eaa565b60405180910390f35b6000806000838152602001908152602001600020905060006004600084815260200190815260200160002090508060020160009054906101000a900460ff161561055f576040517f08c379a000000000000000000000000000000000000000000000000000000000815260040161055690612fac565b60405180910390fd5b600061058c600a61057e6001866000015461194090919063ffffffff16565b6119b090919063ffffffff16565b9050600260009054906101000a900473ffffffffffffffffffffffffffffffffffffffff1673ffffffffffffffffffffffffffffffffffffffff166323b872dd3330846040518463ffffffff1660e01b81526004016105ed93929190612d08565b602060405180830381600087803b15801561060757600080fd5b505af115801561061b573d6000803e3d6000fd5b505050506040513d601f19601f8201168201806040525081019061063f9190612243565b50428260030181905550338260040160006101000a81548173ffffffffffffffffffffffffffffffffffffffff021916908373ffffffffffffffffffffffffffffffffffffffff160217905550600061069b8360000154610901565b90506106c7846000015460076000848152602001908152602001600020546119fa90919063ffffffff16565b60076000838152602001908152602001600020819055506106f78460000154600854611a4490919063ffffffff16565b6008819055505050505050565b600260009054906101000a900473ffffffffffffffffffffffffffffffffffffffff1673ffffffffffffffffffffffffffffffffffffffff166323b872dd3330846040518463ffffffff1660e01b815260040161076393929190612d08565b602060405180830381600087803b15801561077d57600080fd5b505af1158015610791573d6000803e3d6000fd5b505050506040513d601f19601f820116820180604052508101906107b59190612243565b506107cb81600654611a4490919063ffffffff16565b60068190555050565b60065481565b610826816040518060400160405280601f81526020017f4244473a20416d6f756e74206578636565647320746f74616c207374616b6500815250600654611a999092919063ffffffff16565b600681905550600260009054906101000a900473ffffffffffffffffffffffffffffffffffffffff1673ffffffffffffffffffffffffffffffffffffffff1663a9059cbb600560009054906101000a900473ffffffffffffffffffffffffffffffffffffffff16836040518363ffffffff1660e01b81526004016108ab929190612d76565b602060405180830381600087803b1580156108c557600080fd5b505af11580156108d9573d6000803e3d6000fd5b505050506040513d601f19601f820116820180604052508101906108fd9190612243565b5050565b6000610e10828161090e57fe5b049050919050565b6109248686868686866109a6565b61092e8686611af4565b6109383384611af4565b505050505050565b60008061097c61096d600a61095f60018761194090919063ffffffff16565b6119b090919063ffffffff16565b84611a4490919063ffffffff16565b90506109988161098a610b81565b611a4490919063ffffffff16565b915050919050565b60085481565b60006109bc6109b36114da565b8888888861151f565b9050600080600085815260200190815260200160002090506001600083815260200190815260200160002060009054906101000a900460ff1615610a35576040517f08c379a0000000000000000000000000000000000000000000000000000000008152600401610a2c9061306c565b60405180910390fd5b6000816000015411610a7c576040517f08c379a0000000000000000000000000000000000000000000000000000000008152600401610a7390612fcc565b60405180910390fd5b610a91848385611b459092919063ffffffff16565b610ad0576040517f08c379a0000000000000000000000000000000000000000000000000000000008152600401610ac79061308c565b60405180910390fd5b8060000154610aec888360010154611a4490919063ffffffff16565b1115610b2d576040517f08c379a0000000000000000000000000000000000000000000000000000000008152600401610b24906130ac565b60405180910390fd5b600180600084815260200190815260200160002060006101000a81548160ff021916908315150217905550610b6f878260010154611a4490919063ffffffff16565b81600101819055505050505050505050565b600080610b8d42610901565b90506000805b610e1061384081610ba057fe5b04811015610bdf57610bd06007600083860381526020019081526020016000205483611a4490919063ffffffff16565b91508080600101915050610b93565b50610bf560085482611a4490919063ffffffff16565b9050610c30610c21600a610c1360018561194090919063ffffffff16565b6119b090919063ffffffff16565b82611a4490919063ffffffff16565b9050809250505090565b60008282604051602001610c4f929190612f42565b60405160208183030381529060405280519060200120905092915050565b60036020528060005260406000206000915054906101000a900473ffffffffffffffffffffffffffffffffffffffff1681565b6060838383604051602401610cb793929190612d9f565b6040516020818303038152906040527f0bbfab7c000000000000000000000000000000000000000000000000000000007bffffffffffffffffffffffffffffffffffffffffffffffffffffffff19166020820180517bffffffffffffffffffffffffffffffffffffffffffffffffffffffff838183161783525050505090506003600086815260200190815260200160002060009054906101000a900473ffffffffffffffffffffffffffffffffffffffff1673ffffffffffffffffffffffffffffffffffffffff1663050bcdef826040518263ffffffff1660e01b8152600401610da29190612e88565b600060405180830381600087803b158015610dbc57600080fd5b505af1158015610dd0573d6000803e3d6000fd5b50505050610e23333085600260009054906101000a900473ffffffffffffffffffffffffffffffffffffffff1673ffffffffffffffffffffffffffffffffffffffff16611bee909392919063ffffffff16565b5050505050565b60016020528060005260406000206000915054906101000a900460ff1681565b600060046000848152602001908152602001600020905081816001015414610ea7576040517f08c379a0000000000000000000000000000000000000000000000000000000008152600401610e9e906130cc565b60405180910390fd5b60018160020160006101000a81548160ff021916908315150217905550505050565b8051825114610f0d576040517f08c379a0000000000000000000000000000000000000000000000000000000008152600401610f04906130ec565b60405180910390fd5b6000805b8251811015610f4f57610f40838281518110610f2957fe5b602002602001015183611a4490919063ffffffff16565b91508080600101915050610f11565b50600654610f5c82610940565b1115610f9d576040517f08c379a0000000000000000000000000000000000000000000000000000000008152600401610f9490612f8c565b60405180910390fd5b6000610fa842610901565b9050610fd0826007600084815260200190815260200160002054611a4490919063ffffffff16565b60076000838152602001908152602001600020819055506000610ff38585610c3a565b905060005b85518110156112e15761103f6040518060400160405280600581526020017f6b6f76616e0000000000000000000000000000000000000000000000000000008152506114aa565b86828151811061104b57fe5b6020026020010151141561117a576040518060400160405280858152602001600081525060008089815260200190815260200160002060008201518160000155602082015181600101559050506040518060a0016040528042815260200183815260200160001515815260200160008152602001600073ffffffffffffffffffffffffffffffffffffffff1681525060046000898152602001908152602001600020600082015181600001556020820151816001015560408201518160020160006101000a81548160ff0219169083151502179055506060820151816003015560808201518160040160006101000a81548173ffffffffffffffffffffffffffffffffffffffff021916908373ffffffffffffffffffffffffffffffffffffffff1602179055509050506112d4565b60608786838151811061118957fe5b60200260200101516040516024016111a2929190612e5f565b6040516020818303038152906040527ffd31c5ba000000000000000000000000000000000000000000000000000000007bffffffffffffffffffffffffffffffffffffffffffffffffffffffff19166020820180517bffffffffffffffffffffffffffffffffffffffffffffffffffffffff838183161783525050505090506003600088848151811061123157fe5b6020026020010151815260200190815260200160002060009054906101000a900473ffffffffffffffffffffffffffffffffffffffff1673ffffffffffffffffffffffffffffffffffffffff1663050bcdef826040518263ffffffff1660e01b81526004016112a09190612e88565b600060405180830381600087803b1580156112ba57600080fd5b505af11580156112ce573d6000803e3d6000fd5b50505050505b8080600101915050610ff8565b507fa57b3e1f3af9eca02201028629700658608222c365064584cfe65d9630ef4f7b8684604051611313929190612e5f565b60405180910390a1505050505050565b60608282604051602401611338929190612d76565b6040516020818303038152906040527f40c10f19000000000000000000000000000000000000000000000000000000007bffffffffffffffffffffffffffffffffffffffffffffffffffffffff19166020820180517bffffffffffffffffffffffffffffffffffffffffffffffffffffffff83818316178352505050509050611406333084600260009054906101000a900473ffffffffffffffffffffffffffffffffffffffff1673ffffffffffffffffffffffffffffffffffffffff16611bee909392919063ffffffff16565b6003600085815260200190815260200160002060009054906101000a900473ffffffffffffffffffffffffffffffffffffffff1673ffffffffffffffffffffffffffffffffffffffff1663050bcdef826040518263ffffffff1660e01b81526004016114729190612e88565b600060405180830381600087803b15801561148c57600080fd5b505af11580156114a0573d6000803e3d6000fd5b5050505050505050565b6000816040516020016114bd9190612cd6565b604051602081830303815290604052805190602001209050919050565b600061151a6040518060400160405280600581526020017f6b6f76616e0000000000000000000000000000000000000000000000000000008152506114aa565b905090565b6000858585858560405160200161153a959493929190612e0c565b60405160208183030381529060405280519060200120905095945050505050565b60076020528060005260406000206000915090505481565b6000806000838152602001908152602001600020905060006004600084815260200190815260200160002090506000816003015414156115e8576040517f08c379a00000000000000000000000000000000000000000000000000000000081526004016115df90612f02565b60405180910390fd5b611602620a8c008260030154611a4490919063ffffffff16565b4211611643576040517f08c379a000000000000000000000000000000000000000000000000000000000815260040161163a9061300c565b60405180910390fd5b6000611670600a6116626001866000015461194090919063ffffffff16565b6119b090919063ffffffff16565b90508160020160009054906101000a900460ff161561176057600260009054906101000a900473ffffffffffffffffffffffffffffffffffffffff1673ffffffffffffffffffffffffffffffffffffffff1663a9059cbb600560009054906101000a900473ffffffffffffffffffffffffffffffffffffffff16836040518363ffffffff1660e01b8152600401611708929190612d76565b602060405180830381600087803b15801561172257600080fd5b505af1158015611736573d6000803e3d6000fd5b505050506040513d601f19601f8201168201806040525081019061175a9190612243565b50611879565b600260009054906101000a900473ffffffffffffffffffffffffffffffffffffffff1673ffffffffffffffffffffffffffffffffffffffff1663a9059cbb8360040160009054906101000a900473ffffffffffffffffffffffffffffffffffffffff166117d760028561194090919063ffffffff16565b6040518363ffffffff1660e01b81526004016117f4929190612d76565b602060405180830381600087803b15801561180e57600080fd5b505af1158015611822573d6000803e3d6000fd5b505050506040513d601f19601f820116820180604052508101906118469190612243565b506118728161186485600001546006546119fa90919063ffffffff16565b6119fa90919063ffffffff16565b6006819055505b61189283600001546008546119fa90919063ffffffff16565b60088190555050505050565b600560009054906101000a900473ffffffffffffffffffffffffffffffffffffffff1681565b806003600084815260200190815260200160002060006101000a81548173ffffffffffffffffffffffffffffffffffffffff021916908373ffffffffffffffffffffffffffffffffffffffff1602179055505050565b600260009054906101000a900473ffffffffffffffffffffffffffffffffffffffff1681565b60008083141561195357600090506119aa565b600082840290508284828161196457fe5b04146119a5576040517f08c379a000000000000000000000000000000000000000000000000000000000815260040161199c90612fec565b60405180910390fd5b809150505b92915050565b60006119f283836040518060400160405280601a81526020017f536166654d6174683a206469766973696f6e206279207a65726f000000000000815250611c77565b905092915050565b6000611a3c83836040518060400160405280601e81526020017f536166654d6174683a207375627472616374696f6e206f766572666c6f770000815250611a99565b905092915050565b600080828401905083811015611a8f576040517f08c379a0000000000000000000000000000000000000000000000000000000008152600401611a8690612f22565b60405180910390fd5b8091505092915050565b6000838311158290611ae1576040517f08c379a0000000000000000000000000000000000000000000000000000000008152600401611ad89190612ee0565b60405180910390fd5b5060008385039050809150509392505050565b611b418282600260009054906101000a900473ffffffffffffffffffffffffffffffffffffffff1673ffffffffffffffffffffffffffffffffffffffff16611cd89092919063ffffffff16565b5050565b60008082905060005b8551811015611be0576000868281518110611b6557fe5b60200260200101519050808311611ba6578281604051602001611b89929190612c93565b604051602081830303815290604052805190602001209250611bd2565b8083604051602001611bb9929190612c93565b6040516020818303038152906040528051906020012092505b508080600101915050611b4e565b508381149150509392505050565b611c71846323b872dd60e01b858585604051602401611c0f93929190612d3f565b604051602081830303815290604052907bffffffffffffffffffffffffffffffffffffffffffffffffffffffff19166020820180517bffffffffffffffffffffffffffffffffffffffffffffffffffffffff8381831617835250505050611d5e565b50505050565b60008083118290611cbe576040517f08c379a0000000000000000000000000000000000000000000000000000000008152600401611cb59190612ee0565b60405180910390fd5b506000838581611cca57fe5b049050809150509392505050565b611d598363a9059cbb60e01b8484604051602401611cf7929190612d76565b604051602081830303815290604052907bffffffffffffffffffffffffffffffffffffffffffffffffffffffff19166020820180517bffffffffffffffffffffffffffffffffffffffffffffffffffffffff8381831617835250505050611d5e565b505050565b6060611dc0826040518060400160405280602081526020017f5361666545524332303a206c6f772d6c6576656c2063616c6c206661696c65648152508573ffffffffffffffffffffffffffffffffffffffff16611e259092919063ffffffff16565b9050600081511115611e205780806020019051810190611de09190612243565b611e1f576040517f08c379a0000000000000000000000000000000000000000000000000000000008152600401611e169061304c565b60405180910390fd5b5b505050565b6060611e348484600085611e3d565b90509392505050565b6060611e4885611f60565b611e87576040517f08c379a0000000000000000000000000000000000000000000000000000000008152600401611e7e9061302c565b60405180910390fd5b600060608673ffffffffffffffffffffffffffffffffffffffff168587604051611eb19190612cbf565b60006040518083038185875af1925050503d8060008114611eee576040519150601f19603f3d011682016040523d82523d6000602084013e611ef3565b606091505b50915091508115611f08578092505050611f58565b600081511115611f1b5780518082602001fd5b836040517f08c379a0000000000000000000000000000000000000000000000000000000008152600401611f4f9190612ee0565b60405180910390fd5b949350505050565b600080823b905060008111915050919050565b600081359050611f82816133cf565b92915050565b600082601f830112611f9957600080fd5b8135611fac611fa782613154565b613127565b91508181835260208401935060208101905083856020840282011115611fd157600080fd5b60005b838110156120015781611fe788826120a3565b845260208401935060208301925050600181019050611fd4565b5050505092915050565b600082601f83011261201c57600080fd5b813561202f61202a8261317c565b613127565b9150818183526020840193506020810190508385602084028201111561205457600080fd5b60005b83811015612084578161206a8882612121565b845260208401935060208301925050600181019050612057565b5050505092915050565b60008151905061209d816133e6565b92915050565b6000813590506120b2816133fd565b92915050565b6000813590506120c781613414565b92915050565b600082601f8301126120de57600080fd5b81356120f16120ec826131a4565b613127565b9150808252602083016020830185838301111561210d57600080fd5b612118838284613372565b50505092915050565b6000813590506121308161342b565b92915050565b60008060008060008060c0878903121561214f57600080fd5b600061215d89828a01611f73565b965050602061216e89828a01612121565b955050604061217f89828a01612121565b945050606061219089828a01612121565b93505060806121a189828a016120a3565b92505060a087013567ffffffffffffffff8111156121be57600080fd5b6121ca89828a01611f88565b9150509295509295509295565b600080604083850312156121ea57600080fd5b600083013567ffffffffffffffff81111561220457600080fd5b61221085828601611f88565b925050602083013567ffffffffffffffff81111561222d57600080fd5b6122398582860161200b565b9150509250929050565b60006020828403121561225557600080fd5b60006122638482850161208e565b91505092915050565b60006020828403121561227e57600080fd5b600061228c848285016120a3565b91505092915050565b6000806000606084860312156122aa57600080fd5b60006122b8868287016120a3565b93505060206122c986828701611f73565b92505060406122da86828701612121565b9150509250925092565b600080600080608085870312156122fa57600080fd5b6000612308878288016120a3565b945050602061231987828801611f73565b935050604061232a87828801612121565b925050606061233b87828801612121565b91505092959194509250565b600080600080600060a0868803121561235f57600080fd5b600061236d888289016120a3565b955050602061237e88828901611f73565b945050604061238f88828901612121565b93505060606123a088828901612121565b92505060806123b188828901612121565b9150509295509295909350565b6000806000606084860312156123d357600080fd5b60006123e1868287016120a3565b935050602084013567ffffffffffffffff8111156123fe57600080fd5b61240a86828701611f88565b925050604084013567ffffffffffffffff81111561242757600080fd5b6124338682870161200b565b9150509250925092565b6000806040838503121561245057600080fd5b600061245e858286016120a3565b925050602061246f858286016120a3565b9150509250929050565b6000806040838503121561248c57600080fd5b600061249a858286016120a3565b92505060206124ab858286016120b8565b9150509250929050565b6000602082840312156124c757600080fd5b600082013567ffffffffffffffff8111156124e157600080fd5b6124ed848285016120cd565b91505092915050565b60006020828403121561250857600080fd5b600061251684828501612121565b91505092915050565b600061252b8383612638565b60208301905092915050565b60006125438383612c75565b60208301905092915050565b612558816132f4565b82525050565b61256781613290565b82525050565b6000612578826131f0565b6125828185613236565b935061258d836131d0565b8060005b838110156125be5781516125a5888261251f565b97506125b08361321c565b925050600181019050612591565b5085935050505092915050565b60006125d6826131fb565b6125e08185613247565b93506125eb836131e0565b8060005b8381101561261c5781516126038882612537565b975061260e83613229565b9250506001810190506125ef565b5085935050505092915050565b612632816132a2565b82525050565b612641816132ae565b82525050565b612650816132ae565b82525050565b612667612662826132ae565b6133b4565b82525050565b600061267882613206565b6126828185613258565b9350612692818560208601613381565b61269b816133be565b840191505092915050565b60006126b182613206565b6126bb8185613269565b93506126cb818560208601613381565b80840191505092915050565b6126e081613306565b82525050565b6126ef8161332a565b82525050565b600061270082613211565b61270a8185613274565b935061271a818560208601613381565b612723816133be565b840191505092915050565b600061273982613211565b6127438185613285565b9350612753818560208601613381565b80840191505092915050565b600061276c602a83613274565b91507f4244473a205472616e7366657220726f6f7420686173206e6f74206265656e2060008301527f6368616c6c656e676564000000000000000000000000000000000000000000006020830152604082019050919050565b60006127d2601b83613274565b91507f536166654d6174683a206164646974696f6e206f766572666c6f7700000000006000830152602082019050919050565b6000612812600b83613274565b91507f414d4f554e545f484153480000000000000000000000000000000000000000006000830152602082019050919050565b6000612852602283613274565b91507f4244473a20416d6f756e74206578636565647320636f6d6d697474656520626f60008301527f6e640000000000000000000000000000000000000000000000000000000000006020830152604082019050919050565b60006128b8602d83613274565b91507f4244473a205472616e7366657220726f6f742068617320616c7265616479206260008301527f65656e20636f6e6669726d6564000000000000000000000000000000000000006020830152604082019050919050565b600061291e601c83613274565b91507f4244473a205472616e7366657220726f6f74206e6f7420666f756e64000000006000830152602082019050919050565b600061295e602183613274565b91507f536166654d6174683a206d756c7469706c69636174696f6e206f766572666c6f60008301527f77000000000000000000000000000000000000000000000000000000000000006020830152604082019050919050565b60006129c4602383613274565b91507f4244473a204368616c6c656e676520706572696f6420686173206e6f7420656e60008301527f64656400000000000000000000000000000000000000000000000000000000006020830152604082019050919050565b6000612a2a601d83613274565b91507f416464726573733a2063616c6c20746f206e6f6e2d636f6e74726163740000006000830152602082019050919050565b6000612a6a602a83613274565b91507f5361666545524332303a204552433230206f7065726174696f6e20646964206e60008301527f6f742073756363656564000000000000000000000000000000000000000000006020830152604082019050919050565b6000612ad0602c83613274565b91507f4244473a20546865207472616e736665722068617320616c726561647920626560008301527f656e2077697468647261776e00000000000000000000000000000000000000006020830152604082019050919050565b6000612b36601b83613274565b91507f4244473a20496e76616c6964207472616e736665722070726f6f6600000000006000830152602082019050919050565b6000612b76602a83613274565b91507f4244473a205769746864726177616c2065786365656473205472616e7366657260008301527f526f6f7420746f74616c000000000000000000000000000000000000000000006020830152604082019050919050565b6000612bdc601b83613274565b91507f4244473a20416d6f756e74206861736820697320696e76616c696400000000006000830152602082019050919050565b6000612c1c603683613274565b91507f4244473a206c6179657249647320616e64206c61796572416d6f756e7473206d60008301527f757374206265207468652073616d65206c656e677468000000000000000000006020830152604082019050919050565b612c7e816132ea565b82525050565b612c8d816132ea565b82525050565b6000612c9f8285612656565b602082019150612caf8284612656565b6020820191508190509392505050565b6000612ccb82846126a6565b915081905092915050565b6000612ce2828461272e565b915081905092915050565b6000602082019050612d02600083018461255e565b92915050565b6000606082019050612d1d600083018661254f565b612d2a602083018561255e565b612d376040830184612c84565b949350505050565b6000606082019050612d54600083018661255e565b612d61602083018561255e565b612d6e6040830184612c84565b949350505050565b6000604082019050612d8b600083018561255e565b612d986020830184612c84565b9392505050565b6000606082019050612db4600083018661255e565b612dc16020830185612c84565b612dce6040830184612c84565b949350505050565b6000602082019050612deb6000830184612629565b92915050565b6000602082019050612e066000830184612647565b92915050565b600060a082019050612e216000830188612647565b612e2e602083018761255e565b612e3b6040830186612c84565b612e486060830185612c84565b612e556080830184612c84565b9695505050505050565b6000604082019050612e746000830185612647565b612e816020830184612c84565b9392505050565b60006020820190508181036000830152612ea2818461266d565b905092915050565b6000602082019050612ebf60008301846126d7565b92915050565b6000602082019050612eda60008301846126e6565b92915050565b60006020820190508181036000830152612efa81846126f5565b905092915050565b60006020820190508181036000830152612f1b8161275f565b9050919050565b60006020820190508181036000830152612f3b816127c5565b9050919050565b60006060820190508181036000830152612f5b81612805565b90508181036020830152612f6f818561256d565b90508181036040830152612f8381846125cb565b90509392505050565b60006020820190508181036000830152612fa581612845565b9050919050565b60006020820190508181036000830152612fc5816128ab565b9050919050565b60006020820190508181036000830152612fe581612911565b9050919050565b6000602082019050818103600083015261300581612951565b9050919050565b60006020820190508181036000830152613025816129b7565b9050919050565b6000602082019050818103600083015261304581612a1d565b9050919050565b6000602082019050818103600083015261306581612a5d565b9050919050565b6000602082019050818103600083015261308581612ac3565b9050919050565b600060208201905081810360008301526130a581612b29565b9050919050565b600060208201905081810360008301526130c581612b69565b9050919050565b600060208201905081810360008301526130e581612bcf565b9050919050565b6000602082019050818103600083015261310581612c0f565b9050919050565b60006020820190506131216000830184612c84565b92915050565b6000604051905081810181811067ffffffffffffffff8211171561314a57600080fd5b8060405250919050565b600067ffffffffffffffff82111561316b57600080fd5b602082029050602081019050919050565b600067ffffffffffffffff82111561319357600080fd5b602082029050602081019050919050565b600067ffffffffffffffff8211156131bb57600080fd5b601f19601f8301169050602081019050919050565b6000819050602082019050919050565b6000819050602082019050919050565b600081519050919050565b600081519050919050565b600081519050919050565b600081519050919050565b6000602082019050919050565b6000602082019050919050565b600082825260208201905092915050565b600082825260208201905092915050565b600082825260208201905092915050565b600081905092915050565b600082825260208201905092915050565b600081905092915050565b600061329b826132ca565b9050919050565b60008115159050919050565b6000819050919050565b60006132c382613290565b9050919050565b600073ffffffffffffffffffffffffffffffffffffffff82169050919050565b6000819050919050565b60006132ff8261334e565b9050919050565b600061331182613318565b9050919050565b6000613323826132ca565b9050919050565b60006133358261333c565b9050919050565b6000613347826132ca565b9050919050565b600061335982613360565b9050919050565b600061336b826132ca565b9050919050565b82818337600083830152505050565b60005b8381101561339f578082015181840152602081019050613384565b838111156133ae576000848401525b50505050565b6000819050919050565b6000601f19601f8301169050919050565b6133d881613290565b81146133e357600080fd5b50565b6133ef816132a2565b81146133fa57600080fd5b50565b613406816132ae565b811461341157600080fd5b50565b61341d816132b8565b811461342857600080fd5b50565b613434816132ea565b811461343f57600080fd5b5056fea2646970667358221220469ec26d4e36238e78e08b560df8f6222981bd63a49849a8d6613410b081fee764736f6c634300060c0033",
  "linkReferences": {},
  "deployedLinkReferences": {}
}