{
  "_format": "hh-sol-artifact-1",
  "contractName": "L1ERC20Deposit",
  "sourceName": "contracts/ERC20/L1ERC20Deposit.sol",
  "abi": [
    {
      "inputs": [
        {
          "internalType": "address",
          "name": "_L1ERC20Address",
          "type": "address"
        },
        {
          "internalType": "address",
          "name": "_L2ERC20Address",
          "type": "address"
        },
        {
          "internalType": "address",
          "name": "_messenger",
          "type": "address"
        }
      ],
      "stateMutability": "nonpayable",
      "type": "constructor"
    },
    {
      "anonymous": false,
      "inputs": [
        {
          "indexed": true,
          "internalType": "address",
          "name": "_sender",
          "type": "address"
        },
        {
          "indexed": false,
          "internalType": "uint256",
          "name": "_amount",
          "type": "uint256"
        }
      ],
      "name": "Deposit",
      "type": "event"
    },
    {
      "inputs": [
        {
          "internalType": "address",
          "name": "_depositer",
          "type": "address"
        },
        {
          "internalType": "uint256",
          "name": "_amount",
          "type": "uint256"
        },
        {
          "internalType": "bool",
          "name": "send",
          "type": "bool"
        }
      ],
      "name": "deposit",
      "outputs": [],
      "stateMutability": "nonpayable",
      "type": "function"
    },
    {
      "inputs": [],
      "name": "l1ERC20",
      "outputs": [
        {
          "internalType": "contract IERC20",
          "name": "",
          "type": "address"
        }
      ],
      "stateMutability": "view",
      "type": "function"
    },
    {
      "inputs": [],
      "name": "l2ERC20Address",
      "outputs": [
        {
          "internalType": "address",
          "name": "",
          "type": "address"
        }
      ],
      "stateMutability": "view",
      "type": "function"
    },
    {
      "inputs": [],
      "name": "messenger",
      "outputs": [
        {
          "internalType": "contract iOVM_BaseCrossDomainMessenger",
          "name": "",
          "type": "address"
        }
      ],
      "stateMutability": "view",
      "type": "function"
    },
    {
      "inputs": [
        {
          "internalType": "address",
          "name": "_l1erc20",
          "type": "address"
        }
      ],
      "name": "setL1ERC20",
      "outputs": [],
      "stateMutability": "nonpayable",
      "type": "function"
    },
    {
      "inputs": [
        {
          "internalType": "address",
          "name": "_l2erc20",
          "type": "address"
        }
      ],
      "name": "setL2ERC20",
      "outputs": [],
      "stateMutability": "nonpayable",
      "type": "function"
    },
    {
      "inputs": [
        {
          "internalType": "address",
          "name": "_messenger",
          "type": "address"
        }
      ],
      "name": "setMessenger",
      "outputs": [],
      "stateMutability": "nonpayable",
      "type": "function"
    },
    {
      "inputs": [
        {
          "internalType": "address",
          "name": "_withdrawer",
          "type": "address"
        },
        {
          "internalType": "uint256",
          "name": "_amount",
          "type": "uint256"
        }
      ],
      "name": "withdraw",
      "outputs": [],
      "stateMutability": "nonpayable",
      "type": "function"
    }
  ],
  "bytecode": "0x608060405234801561001057600080fd5b50604051610b2c380380610b2c8339818101604052606081101561003357600080fd5b8101908080519060200190929190805190602001909291908051906020019092919050505082600160006101000a81548173ffffffffffffffffffffffffffffffffffffffff021916908373ffffffffffffffffffffffffffffffffffffffff160217905550816000806101000a81548173ffffffffffffffffffffffffffffffffffffffff021916908373ffffffffffffffffffffffffffffffffffffffff16021790555080600260006101000a81548173ffffffffffffffffffffffffffffffffffffffff021916908373ffffffffffffffffffffffffffffffffffffffff160217905550505050610a008061012c6000396000f3fe608060405234801561001057600080fd5b50600436106100885760003560e01c80633edd11281161005b5780633edd11281461016d57806366285967146101c75780636655ee2e1461020b578063f3fef3a31461024f57610088565b80630da2e2d91461008d57806317fc7c9b146100c157806332b5e32e146101055780633cb747bf14610139575b600080fd5b61009561029d565b604051808273ffffffffffffffffffffffffffffffffffffffff16815260200191505060405180910390f35b610103600480360360208110156100d757600080fd5b81019080803573ffffffffffffffffffffffffffffffffffffffff1690602001909291905050506102c1565b005b61010d610305565b604051808273ffffffffffffffffffffffffffffffffffffffff16815260200191505060405180910390f35b61014161032b565b604051808273ffffffffffffffffffffffffffffffffffffffff16815260200191505060405180910390f35b6101c56004803603606081101561018357600080fd5b81019080803573ffffffffffffffffffffffffffffffffffffffff16906020019092919080359060200190929190803515159060200190929190505050610351565b005b610209600480360360208110156101dd57600080fd5b81019080803573ffffffffffffffffffffffffffffffffffffffff169060200190929190505050610690565b005b61024d6004803603602081101561022157600080fd5b81019080803573ffffffffffffffffffffffffffffffffffffffff1690602001909291905050506106d4565b005b61029b6004803603604081101561026557600080fd5b81019080803573ffffffffffffffffffffffffffffffffffffffff16906020019092919080359060200190929190505050610717565b005b60008054906101000a900473ffffffffffffffffffffffffffffffffffffffff1681565b80600160006101000a81548173ffffffffffffffffffffffffffffffffffffffff021916908373ffffffffffffffffffffffffffffffffffffffff16021790555050565b600160009054906101000a900473ffffffffffffffffffffffffffffffffffffffff1681565b600260009054906101000a900473ffffffffffffffffffffffffffffffffffffffff1681565b600160009054906101000a900473ffffffffffffffffffffffffffffffffffffffff1673ffffffffffffffffffffffffffffffffffffffff166323b872dd8430856040518463ffffffff1660e01b8152600401808473ffffffffffffffffffffffffffffffffffffffff1681526020018373ffffffffffffffffffffffffffffffffffffffff1681526020018281526020019350505050602060405180830381600087803b15801561040257600080fd5b505af1158015610416573d6000803e3d6000fd5b505050506040513d602081101561042c57600080fd5b81019080805190602001909291905050505060608383604051602401808373ffffffffffffffffffffffffffffffffffffffff168152602001828152602001925050506040516020818303038152906040527f40c10f19000000000000000000000000000000000000000000000000000000007bffffffffffffffffffffffffffffffffffffffffffffffffffffffff19166020820180517bffffffffffffffffffffffffffffffffffffffffffffffffffffffff83818316178352505050509050811561063c576000622dc6c09050600260009054906101000a900473ffffffffffffffffffffffffffffffffffffffff1673ffffffffffffffffffffffffffffffffffffffff16633dbb202b60008054906101000a900473ffffffffffffffffffffffffffffffffffffffff1684846040518463ffffffff1660e01b8152600401808473ffffffffffffffffffffffffffffffffffffffff168152602001806020018363ffffffff168152602001828103825284818151815260200191508051906020019080838360005b838110156105d45780820151818401526020810190506105b9565b50505050905090810190601f1680156106015780820380516001836020036101000a031916815260200191505b50945050505050600060405180830381600087803b15801561062257600080fd5b505af1158015610636573d6000803e3d6000fd5b50505050505b8373ffffffffffffffffffffffffffffffffffffffff167fe1fffcc4923d04b559f4d29a8bfc6cda04eb5b0d3c460751c2402c5c5cc9109c846040518082815260200191505060405180910390a250505050565b80600260006101000a81548173ffffffffffffffffffffffffffffffffffffffff021916908373ffffffffffffffffffffffffffffffffffffffff16021790555050565b806000806101000a81548173ffffffffffffffffffffffffffffffffffffffff021916908373ffffffffffffffffffffffffffffffffffffffff16021790555050565b600260009054906101000a900473ffffffffffffffffffffffffffffffffffffffff1673ffffffffffffffffffffffffffffffffffffffff16636e296e456040518163ffffffff1660e01b815260040160206040518083038186803b15801561077f57600080fd5b505afa158015610793573d6000803e3d6000fd5b505050506040513d60208110156107a957600080fd5b810190808051906020019092919050505073ffffffffffffffffffffffffffffffffffffffff1660008054906101000a900473ffffffffffffffffffffffffffffffffffffffff1673ffffffffffffffffffffffffffffffffffffffff161461081157600080fd5b600260009054906101000a900473ffffffffffffffffffffffffffffffffffffffff1673ffffffffffffffffffffffffffffffffffffffff163373ffffffffffffffffffffffffffffffffffffffff16146108b7576040517f08c379a000000000000000000000000000000000000000000000000000000000815260040180806020018281038252604081526020018061098b6040913960400191505060405180910390fd5b600160009054906101000a900473ffffffffffffffffffffffffffffffffffffffff1673ffffffffffffffffffffffffffffffffffffffff1663a9059cbb83836040518363ffffffff1660e01b8152600401808373ffffffffffffffffffffffffffffffffffffffff16815260200182815260200192505050602060405180830381600087803b15801561094a57600080fd5b505af115801561095e573d6000803e3d6000fd5b505050506040513d602081101561097457600080fd5b810190808051906020019092919050505050505056fe4f6e6c79206d657373616765732072656c6179656420627920746865204c3143726f7373446f6d61696e4d657373656e6765722063616e207769746864726177a264697066735822122073d2187a8df3680be1d9c1396246cd51d9ab529c124f5584855a1bfdf67e313e64736f6c63430007030033",
  "linkReferences": {},
  "deployedLinkReferences": {}
}