{
  "_format": "hh-sol-artifact-1",
  "contractName": "BidirectionalGreeter",
  "sourceName": "contracts/BidirectionalGreeter.sol",
  "abi": [
    {
      "anonymous": false,
      "inputs": [
        {
          "indexed": false,
          "internalType": "string",
          "name": "newGreeting",
          "type": "string"
        }
      ],
      "name": "GreetingSent",
      "type": "event"
    },
    {
      "anonymous": false,
      "inputs": [
        {
          "indexed": false,
          "internalType": "string",
          "name": "newGreeting",
          "type": "string"
        }
      ],
      "name": "GreetingSet",
      "type": "event"
    },
    {
      "inputs": [],
      "name": "greeterConnector",
      "outputs": [
        {
          "internalType": "address",
          "name": "",
          "type": "address"
        }
      ],
      "stateMutability": "view",
      "type": "function"
    },
    {
      "inputs": [],
      "name": "greeting",
      "outputs": [
        {
          "internalType": "string",
          "name": "",
          "type": "string"
        }
      ],
      "stateMutability": "view",
      "type": "function"
    },
    {
      "inputs": [
        {
          "internalType": "string",
          "name": "newGreeting",
          "type": "string"
        }
      ],
      "name": "sendGreeting",
      "outputs": [],
      "stateMutability": "payable",
      "type": "function"
    },
    {
      "inputs": [
        {
          "internalType": "address",
          "name": "connector",
          "type": "address"
        }
      ],
      "name": "setConnector",
      "outputs": [],
      "stateMutability": "nonpayable",
      "type": "function"
    },
    {
      "inputs": [
        {
          "internalType": "string",
          "name": "newGreeting",
          "type": "string"
        }
      ],
      "name": "setGreeting",
      "outputs": [],
      "stateMutability": "nonpayable",
      "type": "function"
    }
  ],
  "bytecode": "0x608060405234801561001057600080fd5b5061094e806100206000396000f3fe60806040526004361061004a5760003560e01c806310188aef1461004f578063a413686214610078578063eb12e5ce146100a1578063ef690cc0146100cc578063f410fd0e146100f7575b600080fd5b34801561005b57600080fd5b506100766004803603810190610071919061055c565b610113565b005b34801561008457600080fd5b5061009f600480360381019061009a9190610585565b6101e5565b005b3480156100ad57600080fd5b506100b66102c4565b6040516100c39190610654565b60405180910390f35b3480156100d857600080fd5b506100e16102e8565b6040516100ee919061066f565b60405180910390f35b610111600480360381019061010c9190610585565b610376565b005b600073ffffffffffffffffffffffffffffffffffffffff1660008054906101000a900473ffffffffffffffffffffffffffffffffffffffff1673ffffffffffffffffffffffffffffffffffffffff16146101a2576040517f08c379a000000000000000000000000000000000000000000000000000000000815260040161019990610691565b60405180910390fd5b806000806101000a81548173ffffffffffffffffffffffffffffffffffffffff021916908373ffffffffffffffffffffffffffffffffffffffff16021790555050565b60008054906101000a900473ffffffffffffffffffffffffffffffffffffffff1673ffffffffffffffffffffffffffffffffffffffff163373ffffffffffffffffffffffffffffffffffffffff1614610273576040517f08c379a000000000000000000000000000000000000000000000000000000000815260040161026a906106b1565b60405180910390fd5b806001908051906020019061028992919061043c565b507fad181ee258ff92d26bf7ed2e6b571ef1cba3afc45f028b863b0f02adaffc2f06816040516102b9919061066f565b60405180910390a150565b60008054906101000a900473ffffffffffffffffffffffffffffffffffffffff1681565b600180546102f5906107b7565b80601f0160208091040260200160405190810160405280929190818152602001828054610321906107b7565b801561036e5780601f106103435761010080835404028352916020019161036e565b820191906000526020600020905b81548152906001019060200180831161035157829003601f168201915b505050505081565b60008054906101000a900473ffffffffffffffffffffffffffffffffffffffff1673ffffffffffffffffffffffffffffffffffffffff1663a413686234836040518363ffffffff1660e01b81526004016103d0919061066f565b6000604051808303818588803b1580156103e957600080fd5b505af11580156103fd573d6000803e3d6000fd5b50505050507fc193d9193e489a030e455b846e205a20e75166ac793ce7ff93bad0b0d9d48e8681604051610431919061066f565b60405180910390a150565b828054610448906107b7565b90600052602060002090601f01602090048101928261046a57600085556104b1565b82601f1061048357805160ff19168380011785556104b1565b828001600101855582156104b1579182015b828111156104b0578251825591602001919060010190610495565b5b5090506104be91906104c2565b5090565b5b808211156104db5760008160009055506001016104c3565b5090565b60006104f26104ed846106f6565b6106d1565b90508281526020810184848401111561050a57600080fd5b610515848285610775565b509392505050565b60008135905061052c81610901565b92915050565b600082601f83011261054357600080fd5b81356105538482602086016104df565b91505092915050565b60006020828403121561056e57600080fd5b600061057c8482850161051d565b91505092915050565b60006020828403121561059757600080fd5b600082013567ffffffffffffffff8111156105b157600080fd5b6105bd84828501610532565b91505092915050565b6105cf81610743565b82525050565b60006105e082610727565b6105ea8185610732565b93506105fa818560208601610784565b61060381610878565b840191505092915050565b600061061b601583610732565b915061062682610889565b602082019050919050565b600061063e602483610732565b9150610649826108b2565b604082019050919050565b600060208201905061066960008301846105c6565b92915050565b6000602082019050818103600083015261068981846105d5565b905092915050565b600060208201905081810360008301526106aa8161060e565b9050919050565b600060208201905081810360008301526106ca81610631565b9050919050565b60006106db6106ec565b90506106e782826107e9565b919050565b6000604051905090565b600067ffffffffffffffff82111561071157610710610849565b5b61071a82610878565b9050602081019050919050565b600081519050919050565b600082825260208201905092915050565b600061074e82610755565b9050919050565b600073ffffffffffffffffffffffffffffffffffffffff82169050919050565b82818337600083830152505050565b60005b838110156107a2578082015181840152602081019050610787565b838111156107b1576000848401525b50505050565b600060028204905060018216806107cf57607f821691505b602082108114156107e3576107e261081a565b5b50919050565b6107f282610878565b810181811067ffffffffffffffff8211171561081157610810610849565b5b80604052505050565b7f4e487b7100000000000000000000000000000000000000000000000000000000600052602260045260246000fd5b7f4e487b7100000000000000000000000000000000000000000000000000000000600052604160045260246000fd5b6000601f19601f8301169050919050565b7f436f6e6e6563746f7220616c7265616479207365740000000000000000000000600082015250565b7f4269646972656374696f6e616c477265657465723a204f6e6c7920636f6e6e6560008201527f63746f7200000000000000000000000000000000000000000000000000000000602082015250565b61090a81610743565b811461091557600080fd5b5056fea264697066735822122056c9df4d13d2f7849a49d541e12f88c2304e77c403bce1f8f6de6569f74e30f864736f6c63430008040033",
  "linkReferences": {},
  "deployedLinkReferences": {}
}