{
  "_format": "hh-sol-artifact-1",
  "contractName": "HubERC5164ConnectorFactory",
  "sourceName": "contracts/HubERC5164ConnectorFactory.sol",
  "abi": [
    {
      "inputs": [
        {
          "internalType": "address",
          "name": "_erc5164Messenger",
          "type": "address"
        }
      ],
      "stateMutability": "nonpayable",
      "type": "constructor"
    },
    {
      "anonymous": false,
      "inputs": [
        {
          "indexed": true,
          "internalType": "address",
          "name": "connector",
          "type": "address"
        },
        {
          "indexed": true,
          "internalType": "address",
          "name": "target",
          "type": "address"
        },
        {
          "indexed": false,
          "internalType": "uint256",
          "name": "counterpartChainId",
          "type": "uint256"
        },
        {
          "indexed": true,
          "internalType": "address",
          "name": "counterpartConnector",
          "type": "address"
        },
        {
          "indexed": false,
          "internalType": "address",
          "name": "counterpartTarget",
          "type": "address"
        }
      ],
      "name": "ConnectorDeployed",
      "type": "event"
    },
    {
      "inputs": [
        {
          "internalType": "uint256",
          "name": "chainId1",
          "type": "uint256"
        },
        {
          "internalType": "address",
          "name": "target1",
          "type": "address"
        },
        {
          "internalType": "uint256",
          "name": "chainId2",
          "type": "uint256"
        },
        {
          "internalType": "address",
          "name": "target2",
          "type": "address"
        }
      ],
      "name": "calculateAddress",
      "outputs": [
        {
          "internalType": "address",
          "name": "",
          "type": "address"
        }
      ],
      "stateMutability": "view",
      "type": "function"
    },
    {
      "inputs": [
        {
          "internalType": "uint256",
          "name": "chainId1",
          "type": "uint256"
        },
        {
          "internalType": "address",
          "name": "target1",
          "type": "address"
        },
        {
          "internalType": "uint256",
          "name": "chainId2",
          "type": "uint256"
        },
        {
          "internalType": "address",
          "name": "target2",
          "type": "address"
        }
      ],
      "name": "connectTargets",
      "outputs": [
        {
          "internalType": "address",
          "name": "",
          "type": "address"
        }
      ],
      "stateMutability": "nonpayable",
      "type": "function"
    },
    {
      "inputs": [
        {
          "internalType": "address",
          "name": "target",
          "type": "address"
        },
        {
          "internalType": "uint256",
          "name": "counterpartChainId",
          "type": "uint256"
        },
        {
          "internalType": "address",
          "name": "counterpartConnector",
          "type": "address"
        },
        {
          "internalType": "address",
          "name": "counterpartTarget",
          "type": "address"
        }
      ],
      "name": "deployConnector",
      "outputs": [
        {
          "internalType": "address",
          "name": "",
          "type": "address"
        }
      ],
      "stateMutability": "nonpayable",
      "type": "function"
    },
    {
      "inputs": [],
      "name": "erc5164Messenger",
      "outputs": [
        {
          "internalType": "address",
          "name": "",
          "type": "address"
        }
      ],
      "stateMutability": "view",
      "type": "function"
    },
    {
      "inputs": [],
      "name": "getChainId",
      "outputs": [
        {
          "internalType": "uint256",
          "name": "chainId",
          "type": "uint256"
        }
      ],
      "stateMutability": "view",
      "type": "function"
    },
    {
      "inputs": [
        {
          "internalType": "address",
          "name": "target1",
          "type": "address"
        },
        {
          "internalType": "uint256",
          "name": "chainId1",
          "type": "uint256"
        },
        {
          "internalType": "address",
          "name": "target2",
          "type": "address"
        },
        {
          "internalType": "uint256",
          "name": "chainId2",
          "type": "uint256"
        }
      ],
      "name": "getSalt",
      "outputs": [
        {
          "internalType": "bytes32",
          "name": "",
          "type": "bytes32"
        }
      ],
      "stateMutability": "pure",
      "type": "function"
    }
  ],
  "bytecode": "0x608060405234801561001057600080fd5b50604051611def380380611def8339818101604052810190610032919061008f565b80806000806101000a81548173ffffffffffffffffffffffffffffffffffffffff021916908373ffffffffffffffffffffffffffffffffffffffff1602179055505050610101565b600081519050610089816100ea565b92915050565b6000602082840312156100a157600080fd5b60006100af8482850161007a565b91505092915050565b60006100c3826100ca565b9050919050565b600073ffffffffffffffffffffffffffffffffffffffff82169050919050565b6100f3816100b8565b81146100fe57600080fd5b50565b611cdf806101106000396000f3fe608060405234801561001057600080fd5b50600436106100625760003560e01c80633408e47014610067578063534c259a146100855780636eb65a28146100b5578063aff4017d146100d3578063b97fef1814610103578063ecbfe44914610133575b600080fd5b61006f610163565b60405161007c9190610b43565b60405180910390f35b61009f600480360381019061009a9190610786565b61016b565b6040516100ac9190610a23565b60405180910390f35b6100bd610182565b6040516100ca9190610a23565b60405180910390f35b6100ed60048036038101906100e89190610875565b6101a6565b6040516100fa9190610a23565b60405180910390f35b61011d60048036038101906101189190610875565b6101dd565b60405161012a9190610a23565b60405180910390f35b61014d600480360381019061014891906107e9565b610239565b60405161015a9190610ac8565b60405180910390f35b600046905090565b6000610179858585856102af565b50949350505050565b60008054906101000a900473ffffffffffffffffffffffffffffffffffffffff1681565b6000806101b5868686866101dd565b90506101c4818787878761041c565b6101d1818585898961041c565b80915050949350505050565b6000806101ec85878587610239565b90506000604051806020016102009061073a565b6020820181038252601f19601f82011660405250905060008180519060200120905061022c83826105ee565b9350505050949350505050565b600081841015610277578484848460405160200161025a94939291906109d5565b6040516020818303038152906040528051906020012090506102a7565b8282868660405160200161028e94939291906109d5565b6040516020818303038152906040528051906020012090505b949350505050565b6000806102ba610163565b905060006102ca87838689610239565b905060006102fd600083604051806020016102e49061073a565b6020820181038252601f19601f82011660405250610603565b90508073ffffffffffffffffffffffffffffffffffffffff1663cf756fdf898860008054906101000a900473ffffffffffffffffffffffffffffffffffffffff168b6040518563ffffffff1660e01b815260040161035e9493929190610a3e565b600060405180830381600087803b15801561037857600080fd5b505af115801561038c573d6000803e3d6000fd5b505050508573ffffffffffffffffffffffffffffffffffffffff168873ffffffffffffffffffffffffffffffffffffffff168273ffffffffffffffffffffffffffffffffffffffff167f7c3b4700db7fc735491356ffbf2c0be2d190ede4d5a831be608899740a84e5738a89604051610406929190610b5e565b60405180910390a4809350505050949350505050565b610424610163565b8414156104a3576000610439848488856102af565b90508073ffffffffffffffffffffffffffffffffffffffff168673ffffffffffffffffffffffffffffffffffffffff161461049d577f4e487b7100000000000000000000000000000000000000000000000000000000600052600160045260246000fd5b506105e7565b60008054906101000a900473ffffffffffffffffffffffffffffffffffffffff1673ffffffffffffffffffffffffffffffffffffffff1663fe39827b853086868a876040516024016104f89493929190610a83565b6040516020818303038152906040527f534c259a000000000000000000000000000000000000000000000000000000007bffffffffffffffffffffffffffffffffffffffffffffffffffffffff19166020820180517bffffffffffffffffffffffffffffffffffffffffffffffffffffffff83818316178352505050506040518463ffffffff1660e01b815260040161059393929190610b87565b602060405180830381600087803b1580156105ad57600080fd5b505af11580156105c1573d6000803e3d6000fd5b505050506040513d601f19601f820116820180604052508101906105e5919061084c565b505b5050505050565b60006105fb83833061070f565b905092915050565b600083471015610648576040517f08c379a000000000000000000000000000000000000000000000000000000000815260040161063f90610b23565b60405180910390fd5b60008251141561068d576040517f08c379a000000000000000000000000000000000000000000000000000000000815260040161068490610ae3565b60405180910390fd5b8282516020840186f59050600073ffffffffffffffffffffffffffffffffffffffff168173ffffffffffffffffffffffffffffffffffffffff161415610708576040517f08c379a00000000000000000000000000000000000000000000000000000000081526004016106ff90610b03565b60405180910390fd5b9392505050565b6000604051836040820152846020820152828152600b810160ff815360558120925050509392505050565b610f3280610d7883390190565b60008135905061075681610d32565b92915050565b60008151905061076b81610d49565b92915050565b60008135905061078081610d60565b92915050565b6000806000806080858703121561079c57600080fd5b60006107aa87828801610747565b94505060206107bb87828801610771565b93505060406107cc87828801610747565b92505060606107dd87828801610747565b91505092959194509250565b600080600080608085870312156107ff57600080fd5b600061080d87828801610747565b945050602061081e87828801610771565b935050604061082f87828801610747565b925050606061084087828801610771565b91505092959194509250565b60006020828403121561085e57600080fd5b600061086c8482850161075c565b91505092915050565b6000806000806080858703121561088b57600080fd5b600061089987828801610771565b94505060206108aa87828801610747565b93505060406108bb87828801610771565b92505060606108cc87828801610747565b91505092959194509250565b6108e181610bf2565b82525050565b6108f86108f382610bf2565b610c6b565b82525050565b61090781610c04565b82525050565b600061091882610bc5565b6109228185610bd0565b9350610932818560208601610c38565b61093b81610c99565b840191505092915050565b6000610953602083610be1565b915061095e82610cb7565b602082019050919050565b6000610976601983610be1565b915061098182610ce0565b602082019050919050565b6000610999601d83610be1565b91506109a482610d09565b602082019050919050565b6109b881610c2e565b82525050565b6109cf6109ca82610c2e565b610c8f565b82525050565b60006109e182876108e7565b6014820191506109f182866109be565b602082019150610a0182856108e7565b601482019150610a1182846109be565b60208201915081905095945050505050565b6000602082019050610a3860008301846108d8565b92915050565b6000608082019050610a5360008301876108d8565b610a6060208301866108d8565b610a6d60408301856108d8565b610a7a60608301846109af565b95945050505050565b6000608082019050610a9860008301876108d8565b610aa560208301866109af565b610ab260408301856108d8565b610abf60608301846108d8565b95945050505050565b6000602082019050610add60008301846108fe565b92915050565b60006020820190508181036000830152610afc81610946565b9050919050565b60006020820190508181036000830152610b1c81610969565b9050919050565b60006020820190508181036000830152610b3c8161098c565b9050919050565b6000602082019050610b5860008301846109af565b92915050565b6000604082019050610b7360008301856109af565b610b8060208301846108d8565b9392505050565b6000606082019050610b9c60008301866109af565b610ba960208301856108d8565b8181036040830152610bbb818461090d565b9050949350505050565b600081519050919050565b600082825260208201905092915050565b600082825260208201905092915050565b6000610bfd82610c0e565b9050919050565b6000819050919050565b600073ffffffffffffffffffffffffffffffffffffffff82169050919050565b6000819050919050565b60005b83811015610c56578082015181840152602081019050610c3b565b83811115610c65576000848401525b50505050565b6000610c7682610c7d565b9050919050565b6000610c8882610caa565b9050919050565b6000819050919050565b6000601f19601f8301169050919050565b60008160601b9050919050565b7f437265617465323a2062797465636f6465206c656e677468206973207a65726f600082015250565b7f437265617465323a204661696c6564206f6e206465706c6f7900000000000000600082015250565b7f437265617465323a20696e73756666696369656e742062616c616e6365000000600082015250565b610d3b81610bf2565b8114610d4657600080fd5b50565b610d5281610c04565b8114610d5d57600080fd5b50565b610d6981610c2e565b8114610d7457600080fd5b5056fe608060405234801561001057600080fd5b50610f12806100206000396000f3fe608060405234801561001057600080fd5b50600436106100815760003560e01c8063797594b01161005b578063797594b0146101e4578063b8b5b33414610202578063cf756fdf14610220578063d4b839921461023c57610082565b8063485cc9551461018e5780636eb65a28146101aa57806377061e4d146101c857610082565b5b60008054906101000a900473ffffffffffffffffffffffffffffffffffffffff1673ffffffffffffffffffffffffffffffffffffffff163373ffffffffffffffffffffffffffffffffffffffff1614156100e3576100de61025a565b61018c565b6100eb610333565b60008060008054906101000a900473ffffffffffffffffffffffffffffffffffffffff1673ffffffffffffffffffffffffffffffffffffffff16600036604051610136929190610b4a565b6000604051808303816000865af19150503d8060008114610173576040519150601f19603f3d011682016040523d82523d6000602084013e610178565b606091505b509150915081610189578060208201fd5b50505b005b6101a860048036038101906101a39190610963565b6104b1565b005b6101b2610736565b6040516101bf9190610b63565b60405180910390f35b6101e260048036038101906101dd919061093a565b61075c565b005b6101ec610831565b6040516101f99190610b63565b60405180910390f35b61020a610857565b6040516102179190610c1e565b60405180910390f35b61023a6004803603810190610235919061099f565b61085d565b005b6102446108b5565b6040516102519190610b63565b60405180910390f35b600360009054906101000a900473ffffffffffffffffffffffffffffffffffffffff1673ffffffffffffffffffffffffffffffffffffffff1663fe39827b60025460008054906101000a900473ffffffffffffffffffffffffffffffffffffffff166000366040518563ffffffff1660e01b81526004016102de9493929190610c39565b602060405180830381600087803b1580156102f857600080fd5b505af115801561030c573d6000803e3d6000fd5b505050506040513d601f19601f820116820180604052508101906103309190610a02565b50565b60008061033e6108d9565b9250925050600160009054906101000a900473ffffffffffffffffffffffffffffffffffffffff1673ffffffffffffffffffffffffffffffffffffffff168173ffffffffffffffffffffffffffffffffffffffff16146103d557806040517fd19d9fc50000000000000000000000000000000000000000000000000000000081526004016103cc9190610b63565b60405180910390fd5b600360009054906101000a900473ffffffffffffffffffffffffffffffffffffffff1673ffffffffffffffffffffffffffffffffffffffff163373ffffffffffffffffffffffffffffffffffffffff161461046757336040517f6866912800000000000000000000000000000000000000000000000000000000815260040161045e9190610b63565b60405180910390fd5b60025482146104ad57816040517f89ced4030000000000000000000000000000000000000000000000000000000081526004016104a49190610c1e565b60405180910390fd5b5050565b600073ffffffffffffffffffffffffffffffffffffffff1660008054906101000a900473ffffffffffffffffffffffffffffffffffffffff1673ffffffffffffffffffffffffffffffffffffffff1614610540576040517f08c379a000000000000000000000000000000000000000000000000000000000815260040161053790610bfe565b60405180910390fd5b600073ffffffffffffffffffffffffffffffffffffffff16600160009054906101000a900473ffffffffffffffffffffffffffffffffffffffff1673ffffffffffffffffffffffffffffffffffffffff16146105d1576040517f08c379a00000000000000000000000000000000000000000000000000000000081526004016105c890610b7e565b60405180910390fd5b600073ffffffffffffffffffffffffffffffffffffffff168273ffffffffffffffffffffffffffffffffffffffff161415610641576040517f08c379a000000000000000000000000000000000000000000000000000000000815260040161063890610bbe565b60405180910390fd5b600073ffffffffffffffffffffffffffffffffffffffff168173ffffffffffffffffffffffffffffffffffffffff1614156106b1576040517f08c379a00000000000000000000000000000000000000000000000000000000081526004016106a890610bde565b60405180910390fd5b816000806101000a81548173ffffffffffffffffffffffffffffffffffffffff021916908373ffffffffffffffffffffffffffffffffffffffff16021790555080600160006101000a81548173ffffffffffffffffffffffffffffffffffffffff021916908373ffffffffffffffffffffffffffffffffffffffff1602179055505050565b600360009054906101000a900473ffffffffffffffffffffffffffffffffffffffff1681565b600073ffffffffffffffffffffffffffffffffffffffff16600160009054906101000a900473ffffffffffffffffffffffffffffffffffffffff1673ffffffffffffffffffffffffffffffffffffffff16146107ed576040517f08c379a00000000000000000000000000000000000000000000000000000000081526004016107e490610b9e565b60405180910390fd5b80600160006101000a81548173ffffffffffffffffffffffffffffffffffffffff021916908373ffffffffffffffffffffffffffffffffffffffff16021790555050565b600160009054906101000a900473ffffffffffffffffffffffffffffffffffffffff1681565b60025481565b61086784846104b1565b81600360006101000a81548173ffffffffffffffffffffffffffffffffffffffff021916908373ffffffffffffffffffffffffffffffffffffffff1602179055508060028190555050505050565b60008054906101000a900473ffffffffffffffffffffffffffffffffffffffff1681565b60008060006054360335925060343603359150601436033560601c9050909192565b60008135905061090a81610e97565b92915050565b60008151905061091f81610eae565b92915050565b60008135905061093481610ec5565b92915050565b60006020828403121561094c57600080fd5b600061095a848285016108fb565b91505092915050565b6000806040838503121561097657600080fd5b6000610984858286016108fb565b9250506020610995858286016108fb565b9150509250929050565b600080600080608085870312156109b557600080fd5b60006109c3878288016108fb565b94505060206109d4878288016108fb565b93505060406109e5878288016108fb565b92505060606109f687828801610925565b91505092959194509250565b600060208284031215610a1457600080fd5b6000610a2284828501610910565b91505092915050565b610a3481610ca6565b82525050565b6000610a468385610c79565b9350610a53838584610cec565b610a5c83610cfb565b840190509392505050565b6000610a738385610c8a565b9350610a80838584610cec565b82840190509392505050565b6000610a99602583610c95565b9150610aa482610d0c565b604082019050919050565b6000610abc602b83610c95565b9150610ac782610d5b565b604082019050919050565b6000610adf602283610c95565b9150610aea82610daa565b604082019050919050565b6000610b02602783610c95565b9150610b0d82610df9565b604082019050919050565b6000610b25602883610c95565b9150610b3082610e48565b604082019050919050565b610b4481610ce2565b82525050565b6000610b57828486610a67565b91508190509392505050565b6000602082019050610b786000830184610a2b565b92915050565b60006020820190508181036000830152610b9781610a8c565b9050919050565b60006020820190508181036000830152610bb781610aaf565b9050919050565b60006020820190508181036000830152610bd781610ad2565b9050919050565b60006020820190508181036000830152610bf781610af5565b9050919050565b60006020820190508181036000830152610c1781610b18565b9050919050565b6000602082019050610c336000830184610b3b565b92915050565b6000606082019050610c4e6000830187610b3b565b610c5b6020830186610a2b565b8181036040830152610c6e818486610a3a565b905095945050505050565b600082825260208201905092915050565b600081905092915050565b600082825260208201905092915050565b6000610cb182610cc2565b9050919050565b6000819050919050565b600073ffffffffffffffffffffffffffffffffffffffff82169050919050565b6000819050919050565b82818337600083830152505050565b6000601f19601f8301169050919050565b7f434e523a20436f756e746572706172742068617320616c72656164792062656560008201527f6e20736574000000000000000000000000000000000000000000000000000000602082015250565b7f434e523a20436f6e6e6563746f7220616464726573732068617320616c72656160008201527f6479206265656e20736574000000000000000000000000000000000000000000602082015250565b7f434e523a205461726765742063616e6e6f74206265207a65726f20616464726560008201527f7373000000000000000000000000000000000000000000000000000000000000602082015250565b7f434e523a20436f756e746572706172742063616e6e6f74206265207a65726f2060008201527f6164647265737300000000000000000000000000000000000000000000000000602082015250565b7f434e523a2054617267657420616464726573732068617320616c72656164792060008201527f6265656e20736574000000000000000000000000000000000000000000000000602082015250565b610ea081610ca6565b8114610eab57600080fd5b50565b610eb781610cb8565b8114610ec257600080fd5b50565b610ece81610ce2565b8114610ed957600080fd5b5056fea26469706673582212208a425f7ad25ab57c5ff0bf44d9a378ffe9ee28fb5be174b941f51ae9d9c9e80264736f6c63430008040033a26469706673582212200f4bdc76c85de544f90cd4a4b052803897227b8c3a98667bb7efabbd99ffa82c64736f6c63430008040033",
  "linkReferences": {},
  "deployedLinkReferences": {}
}