{
  "_format": "hh-sol-artifact-1",
  "contractName": "PingPong",
  "sourceName": "contracts/PingPong.sol",
  "abi": [
    {
      "anonymous": false,
      "inputs": [
        {
          "indexed": false,
          "internalType": "uint256",
          "name": "rallyCount",
          "type": "uint256"
        }
      ],
      "name": "Ping",
      "type": "event"
    },
    {
      "anonymous": false,
      "inputs": [
        {
          "indexed": false,
          "internalType": "uint256",
          "name": "rallyCount",
          "type": "uint256"
        }
      ],
      "name": "Pong",
      "type": "event"
    },
    {
      "inputs": [],
      "name": "counterpart",
      "outputs": [
        {
          "internalType": "address",
          "name": "",
          "type": "address"
        }
      ],
      "stateMutability": "view",
      "type": "function"
    },
    {
      "inputs": [],
      "name": "messagesReceived",
      "outputs": [
        {
          "internalType": "uint256",
          "name": "",
          "type": "uint256"
        }
      ],
      "stateMutability": "view",
      "type": "function"
    },
    {
      "inputs": [],
      "name": "messagesSent",
      "outputs": [
        {
          "internalType": "uint256",
          "name": "",
          "type": "uint256"
        }
      ],
      "stateMutability": "view",
      "type": "function"
    },
    {
      "inputs": [
        {
          "internalType": "uint256",
          "name": "rallyCount",
          "type": "uint256"
        }
      ],
      "name": "ping",
      "outputs": [],
      "stateMutability": "payable",
      "type": "function"
    },
    {
      "inputs": [
        {
          "internalType": "uint256",
          "name": "rallyCount",
          "type": "uint256"
        }
      ],
      "name": "pong",
      "outputs": [],
      "stateMutability": "payable",
      "type": "function"
    },
    {
      "inputs": [
        {
          "internalType": "address",
          "name": "_counterpart",
          "type": "address"
        }
      ],
      "name": "setCounterpart",
      "outputs": [],
      "stateMutability": "nonpayable",
      "type": "function"
    }
  ],
  "bytecode": "0x60806040526000600155600060025534801561001a57600080fd5b506108488061002a6000396000f3fe6080604052600436106100555760003560e01c806313ceedb71461005a5780635be63c7114610076578063752009d9146100a157806377061e4d146100cc578063773acdef146100f5578063797594b014610111575b600080fd5b610074600480360381019061006f91906104de565b61013c565b005b34801561008257600080fd5b5061008b61023b565b6040516100989190610609565b60405180910390f35b3480156100ad57600080fd5b506100b6610241565b6040516100c39190610609565b60405180910390f35b3480156100d857600080fd5b506100f360048036038101906100ee91906104b5565b610247565b005b61010f600480360381019061010a91906104de565b610389565b005b34801561011d57600080fd5b50610126610467565b604051610133919061058e565b60405180910390f35b60008054906101000a900473ffffffffffffffffffffffffffffffffffffffff1673ffffffffffffffffffffffffffffffffffffffff163373ffffffffffffffffffffffffffffffffffffffff16146101ca576040517f08c379a00000000000000000000000000000000000000000000000000000000081526004016101c1906105c9565b60405180910390fd5b600260008154809291906101dd906106a5565b91905055507f58b69f57828e6962d216502094c54f6562f3bf082ba758966c3454f9e37b1525816040516102119190610609565b60405180910390a16000811115610238576102376001826102329190610635565b610389565b5b50565b60025481565b60015481565b600073ffffffffffffffffffffffffffffffffffffffff1660008054906101000a900473ffffffffffffffffffffffffffffffffffffffff1673ffffffffffffffffffffffffffffffffffffffff16146102d6576040517f08c379a00000000000000000000000000000000000000000000000000000000081526004016102cd906105a9565b60405180910390fd5b600073ffffffffffffffffffffffffffffffffffffffff168173ffffffffffffffffffffffffffffffffffffffff161415610346576040517f08c379a000000000000000000000000000000000000000000000000000000000815260040161033d906105e9565b60405180910390fd5b806000806101000a81548173ffffffffffffffffffffffffffffffffffffffff021916908373ffffffffffffffffffffffffffffffffffffffff16021790555050565b6001600081548092919061039c906106a5565b91905055507f48257dc961b6f792c2b78a080dacfed693b660960a702de21cee364e20270e2f816040516103d09190610609565b60405180910390a160008054906101000a900473ffffffffffffffffffffffffffffffffffffffff1673ffffffffffffffffffffffffffffffffffffffff166313ceedb734836040518363ffffffff1660e01b81526004016104329190610609565b6000604051808303818588803b15801561044b57600080fd5b505af115801561045f573d6000803e3d6000fd5b505050505050565b60008054906101000a900473ffffffffffffffffffffffffffffffffffffffff1681565b60008135905061049a816107e4565b92915050565b6000813590506104af816107fb565b92915050565b6000602082840312156104c757600080fd5b60006104d58482850161048b565b91505092915050565b6000602082840312156104f057600080fd5b60006104fe848285016104a0565b91505092915050565b61051081610669565b82525050565b6000610523602183610624565b915061052e8261071d565b604082019050919050565b6000610546601a83610624565b91506105518261076c565b602082019050919050565b6000610569602c83610624565b915061057482610795565b604082019050919050565b6105888161069b565b82525050565b60006020820190506105a36000830184610507565b92915050565b600060208201905081810360008301526105c281610516565b9050919050565b600060208201905081810360008301526105e281610539565b9050919050565b600060208201905081810360008301526106028161055c565b9050919050565b600060208201905061061e600083018461057f565b92915050565b600082825260208201905092915050565b60006106408261069b565b915061064b8361069b565b92508282101561065e5761065d6106ee565b5b828203905092915050565b60006106748261067b565b9050919050565b600073ffffffffffffffffffffffffffffffffffffffff82169050919050565b6000819050919050565b60006106b08261069b565b91507fffffffffffffffffffffffffffffffffffffffffffffffffffffffffffffffff8214156106e3576106e26106ee565b5b600182019050919050565b7f4e487b7100000000000000000000000000000000000000000000000000000000600052601160045260246000fd5b7f50696e67506f6e673a20636f756e7465727061727420616c726561647920736560008201527f7400000000000000000000000000000000000000000000000000000000000000602082015250565b7f50696e67506f6e673a206f6e6c7920636f756e74657270617274000000000000600082015250565b7f50696e67506f6e673a20636f756e746572706172742063616e6e6f742062652060008201527f7a65726f20616464726573730000000000000000000000000000000000000000602082015250565b6107ed81610669565b81146107f857600080fd5b50565b6108048161069b565b811461080f57600080fd5b5056fea2646970667358221220108cd3448cacd3ee8437e6cfd1f8bc6f20e82fa0f59acb43c94a0ae8b133ccc464736f6c63430008040033",
  "linkReferences": {},
  "deployedLinkReferences": {}
}