{
  "_format": "hh-sol-artifact-1",
  "contractName": "GlobalInbox",
  "sourceName": "contracts/test/arbitrum/inbox/GlobalInbox.sol",
  "abi": [
    {
      "anonymous": false,
      "inputs": [
        {
          "indexed": true,
          "internalType": "address",
          "name": "sender",
          "type": "address"
        },
        {
          "indexed": false,
          "internalType": "bytes",
          "name": "data",
          "type": "bytes"
        }
      ],
      "name": "BuddyContractDeployed",
      "type": "event"
    },
    {
      "anonymous": false,
      "inputs": [
        {
          "indexed": true,
          "internalType": "address",
          "name": "sender",
          "type": "address"
        },
        {
          "indexed": false,
          "internalType": "address",
          "name": "data",
          "type": "address"
        }
      ],
      "name": "BuddyContractPair",
      "type": "event"
    },
    {
      "anonymous": false,
      "inputs": [
        {
          "indexed": true,
          "internalType": "address",
          "name": "chain",
          "type": "address"
        },
        {
          "indexed": true,
          "internalType": "uint8",
          "name": "kind",
          "type": "uint8"
        },
        {
          "indexed": true,
          "internalType": "address",
          "name": "sender",
          "type": "address"
        },
        {
          "indexed": false,
          "internalType": "uint256",
          "name": "inboxSeqNum",
          "type": "uint256"
        },
        {
          "indexed": false,
          "internalType": "bytes",
          "name": "data",
          "type": "bytes"
        }
      ],
      "name": "MessageDelivered",
      "type": "event"
    },
    {
      "anonymous": false,
      "inputs": [
        {
          "indexed": true,
          "internalType": "address",
          "name": "chain",
          "type": "address"
        },
        {
          "indexed": true,
          "internalType": "uint8",
          "name": "kind",
          "type": "uint8"
        },
        {
          "indexed": true,
          "internalType": "address",
          "name": "sender",
          "type": "address"
        },
        {
          "indexed": false,
          "internalType": "uint256",
          "name": "inboxSeqNum",
          "type": "uint256"
        }
      ],
      "name": "MessageDeliveredFromOrigin",
      "type": "event"
    },
    {
      "anonymous": false,
      "inputs": [
        {
          "indexed": false,
          "internalType": "uint256",
          "name": "messageIndex",
          "type": "uint256"
        },
        {
          "indexed": false,
          "internalType": "address",
          "name": "originalOwner",
          "type": "address"
        },
        {
          "indexed": false,
          "internalType": "address",
          "name": "prevOwner",
          "type": "address"
        },
        {
          "indexed": false,
          "internalType": "address",
          "name": "newOwner",
          "type": "address"
        }
      ],
      "name": "PaymentTransfer",
      "type": "event"
    },
    {
      "constant": true,
      "inputs": [],
      "name": "FAILED_TRANSFER",
      "outputs": [
        {
          "internalType": "string",
          "name": "",
          "type": "string"
        }
      ],
      "payable": false,
      "stateMutability": "view",
      "type": "function"
    },
    {
      "constant": false,
      "inputs": [
        {
          "internalType": "address",
          "name": "chain",
          "type": "address"
        },
        {
          "internalType": "uint256",
          "name": "maxGas",
          "type": "uint256"
        },
        {
          "internalType": "uint256",
          "name": "gasPriceBid",
          "type": "uint256"
        },
        {
          "internalType": "uint256",
          "name": "payment",
          "type": "uint256"
        },
        {
          "internalType": "bytes",
          "name": "contractData",
          "type": "bytes"
        }
      ],
      "name": "deployL2ContractPair",
      "outputs": [],
      "payable": false,
      "stateMutability": "nonpayable",
      "type": "function"
    },
    {
      "constant": false,
      "inputs": [
        {
          "internalType": "address",
          "name": "chain",
          "type": "address"
        },
        {
          "internalType": "address",
          "name": "erc20",
          "type": "address"
        },
        {
          "internalType": "address",
          "name": "to",
          "type": "address"
        },
        {
          "internalType": "uint256",
          "name": "value",
          "type": "uint256"
        }
      ],
      "name": "depositERC20Message",
      "outputs": [],
      "payable": false,
      "stateMutability": "nonpayable",
      "type": "function"
    },
    {
      "constant": false,
      "inputs": [
        {
          "internalType": "address",
          "name": "chain",
          "type": "address"
        },
        {
          "internalType": "address",
          "name": "erc721",
          "type": "address"
        },
        {
          "internalType": "address",
          "name": "to",
          "type": "address"
        },
        {
          "internalType": "uint256",
          "name": "id",
          "type": "uint256"
        }
      ],
      "name": "depositERC721Message",
      "outputs": [],
      "payable": false,
      "stateMutability": "nonpayable",
      "type": "function"
    },
    {
      "constant": false,
      "inputs": [
        {
          "internalType": "address",
          "name": "chain",
          "type": "address"
        },
        {
          "internalType": "address",
          "name": "to",
          "type": "address"
        }
      ],
      "name": "depositEthMessage",
      "outputs": [],
      "payable": true,
      "stateMutability": "payable",
      "type": "function"
    },
    {
      "constant": true,
      "inputs": [
        {
          "internalType": "address",
          "name": "_tokenContract",
          "type": "address"
        },
        {
          "internalType": "address",
          "name": "_owner",
          "type": "address"
        }
      ],
      "name": "getERC20Balance",
      "outputs": [
        {
          "internalType": "uint256",
          "name": "",
          "type": "uint256"
        }
      ],
      "payable": false,
      "stateMutability": "view",
      "type": "function"
    },
    {
      "constant": true,
      "inputs": [
        {
          "internalType": "address",
          "name": "_erc721",
          "type": "address"
        },
        {
          "internalType": "address",
          "name": "_owner",
          "type": "address"
        }
      ],
      "name": "getERC721Tokens",
      "outputs": [
        {
          "internalType": "uint256[]",
          "name": "",
          "type": "uint256[]"
        }
      ],
      "payable": false,
      "stateMutability": "view",
      "type": "function"
    },
    {
      "constant": true,
      "inputs": [
        {
          "internalType": "address",
          "name": "_owner",
          "type": "address"
        }
      ],
      "name": "getEthBalance",
      "outputs": [
        {
          "internalType": "uint256",
          "name": "",
          "type": "uint256"
        }
      ],
      "payable": false,
      "stateMutability": "view",
      "type": "function"
    },
    {
      "constant": true,
      "inputs": [
        {
          "internalType": "address",
          "name": "account",
          "type": "address"
        }
      ],
      "name": "getInbox",
      "outputs": [
        {
          "internalType": "bytes32",
          "name": "",
          "type": "bytes32"
        },
        {
          "internalType": "uint256",
          "name": "",
          "type": "uint256"
        }
      ],
      "payable": false,
      "stateMutability": "view",
      "type": "function"
    },
    {
      "constant": true,
      "inputs": [
        {
          "internalType": "address",
          "name": "originalOwner",
          "type": "address"
        },
        {
          "internalType": "uint256",
          "name": "messageIndex",
          "type": "uint256"
        }
      ],
      "name": "getPaymentOwner",
      "outputs": [
        {
          "internalType": "address",
          "name": "",
          "type": "address"
        }
      ],
      "payable": false,
      "stateMutability": "view",
      "type": "function"
    },
    {
      "constant": true,
      "inputs": [
        {
          "internalType": "address",
          "name": "_erc721",
          "type": "address"
        },
        {
          "internalType": "address",
          "name": "_owner",
          "type": "address"
        },
        {
          "internalType": "uint256",
          "name": "_tokenId",
          "type": "uint256"
        }
      ],
      "name": "hasERC721",
      "outputs": [
        {
          "internalType": "bool",
          "name": "",
          "type": "bool"
        }
      ],
      "payable": false,
      "stateMutability": "view",
      "type": "function"
    },
    {
      "constant": true,
      "inputs": [
        {
          "internalType": "address",
          "name": "_tokenContract",
          "type": "address"
        },
        {
          "internalType": "address",
          "name": "_chain",
          "type": "address"
        }
      ],
      "name": "isPairedContract",
      "outputs": [
        {
          "internalType": "enum GlobalFTWallet.PairingStatus",
          "name": "",
          "type": "uint8"
        }
      ],
      "payable": false,
      "stateMutability": "view",
      "type": "function"
    },
    {
      "constant": true,
      "inputs": [
        {
          "internalType": "address",
          "name": "_owner",
          "type": "address"
        }
      ],
      "name": "ownedERC20s",
      "outputs": [
        {
          "internalType": "address[]",
          "name": "",
          "type": "address[]"
        }
      ],
      "payable": false,
      "stateMutability": "view",
      "type": "function"
    },
    {
      "constant": true,
      "inputs": [
        {
          "internalType": "address",
          "name": "_owner",
          "type": "address"
        }
      ],
      "name": "ownedERC721s",
      "outputs": [
        {
          "internalType": "address[]",
          "name": "",
          "type": "address[]"
        }
      ],
      "payable": false,
      "stateMutability": "view",
      "type": "function"
    },
    {
      "constant": false,
      "inputs": [
        {
          "internalType": "bytes",
          "name": "messageData",
          "type": "bytes"
        }
      ],
      "name": "sendInitializationMessage",
      "outputs": [],
      "payable": false,
      "stateMutability": "nonpayable",
      "type": "function"
    },
    {
      "constant": false,
      "inputs": [
        {
          "internalType": "address",
          "name": "chain",
          "type": "address"
        },
        {
          "internalType": "bytes",
          "name": "messageData",
          "type": "bytes"
        }
      ],
      "name": "sendL2Message",
      "outputs": [],
      "payable": false,
      "stateMutability": "nonpayable",
      "type": "function"
    },
    {
      "constant": false,
      "inputs": [
        {
          "internalType": "address",
          "name": "chain",
          "type": "address"
        },
        {
          "internalType": "bytes",
          "name": "messageData",
          "type": "bytes"
        }
      ],
      "name": "sendL2MessageFromOrigin",
      "outputs": [],
      "payable": false,
      "stateMutability": "nonpayable",
      "type": "function"
    },
    {
      "constant": false,
      "inputs": [
        {
          "internalType": "bytes",
          "name": "messages",
          "type": "bytes"
        },
        {
          "internalType": "uint256",
          "name": "initialMaxSendCount",
          "type": "uint256"
        },
        {
          "internalType": "uint256",
          "name": "finalMaxSendCount",
          "type": "uint256"
        }
      ],
      "name": "sendMessages",
      "outputs": [],
      "payable": false,
      "stateMutability": "nonpayable",
      "type": "function"
    },
    {
      "constant": false,
      "inputs": [
        {
          "internalType": "address",
          "name": "originalOwner",
          "type": "address"
        },
        {
          "internalType": "address",
          "name": "newOwner",
          "type": "address"
        },
        {
          "internalType": "uint256",
          "name": "messageIndex",
          "type": "uint256"
        }
      ],
      "name": "transferPayment",
      "outputs": [],
      "payable": false,
      "stateMutability": "nonpayable",
      "type": "function"
    },
    {
      "constant": false,
      "inputs": [
        {
          "internalType": "address",
          "name": "_tokenContract",
          "type": "address"
        }
      ],
      "name": "withdrawERC20",
      "outputs": [],
      "payable": false,
      "stateMutability": "nonpayable",
      "type": "function"
    },
    {
      "constant": false,
      "inputs": [
        {
          "internalType": "address",
          "name": "_erc721",
          "type": "address"
        },
        {
          "internalType": "uint256",
          "name": "_tokenId",
          "type": "uint256"
        }
      ],
      "name": "withdrawERC721",
      "outputs": [],
      "payable": false,
      "stateMutability": "nonpayable",
      "type": "function"
    },
    {
      "constant": false,
      "inputs": [],
      "name": "withdrawEth",
      "outputs": [],
      "payable": false,
      "stateMutability": "nonpayable",
      "type": "function"
    }
  ],
  "bytecode": "0x608060405234801561001057600080fd5b506149b2806100206000396000f3fe6080604052600436106101355760003560e01c80636e2b89c5116100ab578063c3a8962c1161006f578063c3a8962c14610a0f578063caba3af014610a94578063e628c91c14610b2e578063f3e414f814610ba9578063f4f3b20014610c04578063fbef861b14610c5557610135565b80636e2b89c51461077657806374c6eccc1461081c5780638b7010aa146108c2578063a0ef91df1461095d578063bca22b761461097457610135565b806345a53f09116100fd57806345a53f09146104715780634d2301cc1461050457806356434fe9146105695780635bd21290146105f95780635cc96efa1461065d578063659e42cd146106e357610135565b8063022016811461013a5780630547e1b4146101a65780630758fb0a1461024157806333f2ac421461030757806341acf614146103ad575b600080fd5b34801561014657600080fd5b506101896004803603602081101561015d57600080fd5b81019080803573ffffffffffffffffffffffffffffffffffffffff169060200190929190505050610cfb565b604051808381526020018281526020019250505060405180910390f35b3480156101b257600080fd5b506101ff600480360360408110156101c957600080fd5b81019080803573ffffffffffffffffffffffffffffffffffffffff16906020019092919080359060200190929190505050610d55565b604051808273ffffffffffffffffffffffffffffffffffffffff1673ffffffffffffffffffffffffffffffffffffffff16815260200191505060405180910390f35b34801561024d57600080fd5b506102b06004803603604081101561026457600080fd5b81019080803573ffffffffffffffffffffffffffffffffffffffff169060200190929190803573ffffffffffffffffffffffffffffffffffffffff169060200190929190505050610e34565b6040518080602001828103825283818151815260200191508051906020019060200280838360005b838110156102f35780820151818401526020810190506102d8565b505050509050019250505060405180910390f35b34801561031357600080fd5b506103566004803603602081101561032a57600080fd5b81019080803573ffffffffffffffffffffffffffffffffffffffff169060200190929190505050610f7f565b6040518080602001828103825283818151815260200191508051906020019060200280838360005b8381101561039957808201518184015260208101905061037e565b505050509050019250505060405180910390f35b3480156103b957600080fd5b5061046f600480360360a08110156103d057600080fd5b81019080803573ffffffffffffffffffffffffffffffffffffffff1690602001909291908035906020019092919080359060200190929190803590602001909291908035906020019064010000000081111561042b57600080fd5b82018360208201111561043d57600080fd5b8035906020019184600183028401116401000000008311171561045f57600080fd5b90919293919293905050506110b3565b005b34801561047d57600080fd5b506104ea6004803603606081101561049457600080fd5b81019080803573ffffffffffffffffffffffffffffffffffffffff169060200190929190803573ffffffffffffffffffffffffffffffffffffffff16906020019092919080359060200190929190505050611207565b604051808215151515815260200191505060405180910390f35b34801561051057600080fd5b506105536004803603602081101561052757600080fd5b81019080803573ffffffffffffffffffffffffffffffffffffffff1690602001909291905050506112ea565b6040518082815260200191505060405180910390f35b34801561057557600080fd5b5061057e611332565b6040518080602001828103825283818151815260200191508051906020019080838360005b838110156105be5780820151818401526020810190506105a3565b50505050905090810190601f1680156105eb5780820380516001836020036101000a031916815260200191505b509250505060405180910390f35b61065b6004803603604081101561060f57600080fd5b81019080803573ffffffffffffffffffffffffffffffffffffffff169060200190929190803573ffffffffffffffffffffffffffffffffffffffff16906020019092919050505061136b565b005b34801561066957600080fd5b506106e16004803603602081101561068057600080fd5b810190808035906020019064010000000081111561069d57600080fd5b8201836020820111156106af57600080fd5b803590602001918460018302840111640100000000831117156106d157600080fd5b90919293919293905050506113c8565b005b3480156106ef57600080fd5b506107526004803603604081101561070657600080fd5b81019080803573ffffffffffffffffffffffffffffffffffffffff169060200190929190803573ffffffffffffffffffffffffffffffffffffffff16906020019092919050505061141d565b6040518082600281111561076257fe5b60ff16815260200191505060405180910390f35b34801561078257600080fd5b506107c56004803603602081101561079957600080fd5b81019080803573ffffffffffffffffffffffffffffffffffffffff1690602001909291905050506114b4565b6040518080602001828103825283818151815260200191508051906020019060200280838360005b838110156108085780820151818401526020810190506107ed565b505050509050019250505060405180910390f35b34801561082857600080fd5b506108c06004803603604081101561083f57600080fd5b81019080803573ffffffffffffffffffffffffffffffffffffffff1690602001909291908035906020019064010000000081111561087c57600080fd5b82018360208201111561088e57600080fd5b803590602001918460018302840111640100000000831117156108b057600080fd5b90919293919293905050506115e8565b005b3480156108ce57600080fd5b5061095b600480360360808110156108e557600080fd5b81019080803573ffffffffffffffffffffffffffffffffffffffff169060200190929190803573ffffffffffffffffffffffffffffffffffffffff169060200190929190803573ffffffffffffffffffffffffffffffffffffffff1690602001909291908035906020019092919050505061163e565b005b34801561096957600080fd5b506109726116c3565b005b34801561098057600080fd5b50610a0d6004803603608081101561099757600080fd5b81019080803573ffffffffffffffffffffffffffffffffffffffff169060200190929190803573ffffffffffffffffffffffffffffffffffffffff169060200190929190803573ffffffffffffffffffffffffffffffffffffffff1690602001909291908035906020019092919050505061175c565b005b348015610a1b57600080fd5b50610a7e60048036036040811015610a3257600080fd5b81019080803573ffffffffffffffffffffffffffffffffffffffff169060200190929190803573ffffffffffffffffffffffffffffffffffffffff1690602001909291905050506117e1565b6040518082815260200191505060405180910390f35b348015610aa057600080fd5b50610b2c60048036036060811015610ab757600080fd5b8101908080359060200190640100000000811115610ad457600080fd5b820183602082011115610ae657600080fd5b80359060200191846001830284011164010000000083111715610b0857600080fd5b909192939192939080359060200190929190803590602001909291905050506118ae565b005b348015610b3a57600080fd5b50610ba760048036036060811015610b5157600080fd5b81019080803573ffffffffffffffffffffffffffffffffffffffff169060200190929190803573ffffffffffffffffffffffffffffffffffffffff16906020019092919080359060200190929190505050611955565b005b348015610bb557600080fd5b50610c0260048036036040811015610bcc57600080fd5b81019080803573ffffffffffffffffffffffffffffffffffffffff16906020019092919080359060200190929190505050611b8c565b005b348015610c1057600080fd5b50610c5360048036036020811015610c2757600080fd5b81019080803573ffffffffffffffffffffffffffffffffffffffff169060200190929190505050611ce0565b005b348015610c6157600080fd5b50610cf960048036036040811015610c7857600080fd5b81019080803573ffffffffffffffffffffffffffffffffffffffff16906020019092919080359060200190640100000000811115610cb557600080fd5b820183602082011115610cc757600080fd5b80359060200191846001830284011164010000000083111715610ce957600080fd5b9091929391929390505050612008565b005b6000806000600560008573ffffffffffffffffffffffffffffffffffffffff1673ffffffffffffffffffffffffffffffffffffffff1681526020019081526020016000209050806000015481600101549250925050915091565b600080600460008486604051602001808381526020018273ffffffffffffffffffffffffffffffffffffffff1673ffffffffffffffffffffffffffffffffffffffff1660601b81526014019250505060405160208183030381529060405280519060200120815260200190815260200160002060009054906101000a900473ffffffffffffffffffffffffffffffffffffffff169050600073ffffffffffffffffffffffffffffffffffffffff168173ffffffffffffffffffffffffffffffffffffffff161415610e295783915050610e2e565b809150505b92915050565b60606000600360008473ffffffffffffffffffffffffffffffffffffffff1673ffffffffffffffffffffffffffffffffffffffff168152602001908152602001600020905060008160000160008673ffffffffffffffffffffffffffffffffffffffff1673ffffffffffffffffffffffffffffffffffffffff1681526020019081526020016000205490506000811415610f02576000604051908082528060200260200182016040528015610ef85781602001602082028038833980820191505090505b5092505050610f79565b816001016001820381548110610f1457fe5b9060005260206000209060030201600201805480602002602001604051908101604052809291908181526020018280548015610f6f57602002820191906000526020600020905b815481526020019060010190808311610f5b575b5050505050925050505b92915050565b60606000600360008473ffffffffffffffffffffffffffffffffffffffff1673ffffffffffffffffffffffffffffffffffffffff168152602001908152602001600020905060608160010180549050604051908082528060200260200182016040528015610ffc5781602001602082028038833980820191505090505b50905060008151905060008090505b818110156110a75783600101818154811061102257fe5b906000526020600020906003020160000160009054906101000a900473ffffffffffffffffffffffffffffffffffffffff1683828151811061106057fe5b602002602001019073ffffffffffffffffffffffffffffffffffffffff16908173ffffffffffffffffffffffffffffffffffffffff1681525050808060010191505061100b565b50819350505050919050565b6110bc33612148565b61112e576040517f08c379a000000000000000000000000000000000000000000000000000000000815260040180806020018281038252601a8152602001807f6d7573742062652063616c6c656420627920636f6e747261637400000000000081525060200191505060405180910390fd5b6111383387612193565b6111858660053388888888886040516020018086815260200185815260200184815260200183838082843780830192505050955050505050506040516020818303038152906040526124a8565b3373ffffffffffffffffffffffffffffffffffffffff167feaa7eb17fe081a8c502cff47a2a944377a71c63065a02cd44b16a06d1a0d4dc787604051808273ffffffffffffffffffffffffffffffffffffffff1673ffffffffffffffffffffffffffffffffffffffff16815260200191505060405180910390a2505050505050565b600080600360008573ffffffffffffffffffffffffffffffffffffffff1673ffffffffffffffffffffffffffffffffffffffff168152602001908152602001600020905060008160000160008773ffffffffffffffffffffffffffffffffffffffff1673ffffffffffffffffffffffffffffffffffffffff16815260200190815260200160002054905060008114156112a5576000925050506112e3565b60008260010160018303815481106112b957fe5b90600052602060002090600302016001016000868152602001908152602001600020541415925050505b9392505050565b60008060008373ffffffffffffffffffffffffffffffffffffffff1673ffffffffffffffffffffffffffffffffffffffff168152602001908152602001600020549050919050565b6040518060400160405280600f81526020017f4641494c45445f5452414e53464552000000000000000000000000000000000081525081565b6113748261259c565b6113c4826000338460601b60601c73ffffffffffffffffffffffffffffffffffffffff163460405160200180838152602001828152602001925050506040516020818303038152906040526124a8565b5050565b6114193360043385858080601f016020809104026020016040519081016040528093929190818152602001838380828437600081840152601f19601f820116905080830192505050505050506124a8565b5050565b6000600260008473ffffffffffffffffffffffffffffffffffffffff1673ffffffffffffffffffffffffffffffffffffffff16815260200190815260200160002060010160008373ffffffffffffffffffffffffffffffffffffffff1673ffffffffffffffffffffffffffffffffffffffff16815260200190815260200160002060009054906101000a900460ff16905092915050565b60606000600160008473ffffffffffffffffffffffffffffffffffffffff1673ffffffffffffffffffffffffffffffffffffffff1681526020019081526020016000209050606081600101805490506040519080825280602002602001820160405280156115315781602001602082028038833980820191505090505b50905060008151905060008090505b818110156115dc5783600101818154811061155757fe5b906000526020600020906002020160000160009054906101000a900473ffffffffffffffffffffffffffffffffffffffff1683828151811061159557fe5b602002602001019073ffffffffffffffffffffffffffffffffffffffff16908173ffffffffffffffffffffffffffffffffffffffff16815250508080600101915050611540565b50819350505050919050565b6116398360033385858080601f016020809104026020016040519081016040528093929190818152602001838380828437600081840152601f19601f820116905080830192505050505050506124a8565b505050565b6116498385836125eb565b6116bd846002338660601b60601c73ffffffffffffffffffffffffffffffffffffffff168660601b60601c73ffffffffffffffffffffffffffffffffffffffff16866040516020018084815260200183815260200182815260200193505050506040516020818303038152906040526124a8565b50505050565b60006116ce336112ea565b90506000803373ffffffffffffffffffffffffffffffffffffffff1673ffffffffffffffffffffffffffffffffffffffff168152602001908152602001600020600090553373ffffffffffffffffffffffffffffffffffffffff166108fc829081150290604051600060405180830381858888f19350505050158015611758573d6000803e3d6000fd5b5050565b6117678385836126ce565b6117db846001338660601b60601c73ffffffffffffffffffffffffffffffffffffffff168660601b60601c73ffffffffffffffffffffffffffffffffffffffff16866040516020018084815260200183815260200182815260200193505050506040516020818303038152906040526124a8565b50505050565b600080600160008473ffffffffffffffffffffffffffffffffffffffff1673ffffffffffffffffffffffffffffffffffffffff168152602001908152602001600020905060008160000160008673ffffffffffffffffffffffffffffffffffffffff1673ffffffffffffffffffffffffffffffffffffffff168152602001908152602001600020549050600081141561187f576000925050506118a8565b81600101600182038154811061189157fe5b906000526020600020906002020160010154925050505b92915050565b600080600090506118bd614794565b60008590505b8481101561194a5761191988888080601f016020809104026020016040519081016040528093929190818152602001838380828437600081840152601f19601f8201169050808301925050505050505084612a32565b80945081955082965050505083611933575050505061194f565b61193d8183612b7d565b80806001019150506118c3565b505050505b50505050565b60006119618483610d55565b90508073ffffffffffffffffffffffffffffffffffffffff163373ffffffffffffffffffffffffffffffffffffffff1614611a04576040517f08c379a00000000000000000000000000000000000000000000000000000000081526004018080602001828103825260168152602001807f4d757374206265207061796d656e74206f776e65722e0000000000000000000081525060200191505060405180910390fd5b82600460008487604051602001808381526020018273ffffffffffffffffffffffffffffffffffffffff1673ffffffffffffffffffffffffffffffffffffffff1660601b81526014019250505060405160208183030381529060405280519060200120815260200190815260200160002060006101000a81548173ffffffffffffffffffffffffffffffffffffffff021916908373ffffffffffffffffffffffffffffffffffffffff1602179055507f56e2b14cbe3f09b8a7337ab17e6ce5da744339e435db498d5ba53655695c03e582858386604051808581526020018473ffffffffffffffffffffffffffffffffffffffff1673ffffffffffffffffffffffffffffffffffffffff1681526020018373ffffffffffffffffffffffffffffffffffffffff1673ffffffffffffffffffffffffffffffffffffffff1681526020018273ffffffffffffffffffffffffffffffffffffffff1673ffffffffffffffffffffffffffffffffffffffff16815260200194505050505060405180910390a150505050565b611b97338383612e07565b611c09576040517f08c379a00000000000000000000000000000000000000000000000000000000081526004018080602001828103825260188152602001807f57616c6c657420646f65736e2774206f776e20746f6b656e000000000000000081525060200191505060405180910390fd5b8173ffffffffffffffffffffffffffffffffffffffff166342842e0e3033846040518463ffffffff1660e01b8152600401808473ffffffffffffffffffffffffffffffffffffffff1673ffffffffffffffffffffffffffffffffffffffff1681526020018373ffffffffffffffffffffffffffffffffffffffff1673ffffffffffffffffffffffffffffffffffffffff1681526020018281526020019350505050600060405180830381600087803b158015611cc457600080fd5b505af1158015611cd8573d6000803e3d6000fd5b505050505050565b6000611cec82336117e1565b9050611cf93383836131d1565b611d6b576040517f08c379a00000000000000000000000000000000000000000000000000000000081526004018080602001828103825260148152602001807f696e73756666696369656e742062616c616e636500000000000000000000000081525060200191505060405180910390fd5b600260008373ffffffffffffffffffffffffffffffffffffffff1673ffffffffffffffffffffffffffffffffffffffff16815260200190815260200160002060000160009054906101000a900460ff1615611e64578173ffffffffffffffffffffffffffffffffffffffff166340c10f1933836040518363ffffffff1660e01b8152600401808373ffffffffffffffffffffffffffffffffffffffff1673ffffffffffffffffffffffffffffffffffffffff16815260200182815260200192505050600060405180830381600087803b158015611e4757600080fd5b505af1158015611e5b573d6000803e3d6000fd5b50505050612004565b8173ffffffffffffffffffffffffffffffffffffffff1663a9059cbb33836040518363ffffffff1660e01b8152600401808373ffffffffffffffffffffffffffffffffffffffff1673ffffffffffffffffffffffffffffffffffffffff16815260200182815260200192505050602060405180830381600087803b158015611eeb57600080fd5b505af1158015611eff573d6000803e3d6000fd5b505050506040513d6020811015611f1557600080fd5b81019080805190602001909291905050506040518060400160405280600f81526020017f4641494c45445f5452414e53464552000000000000000000000000000000000081525090612002576040517f08c379a00000000000000000000000000000000000000000000000000000000081526004018080602001828103825283818151815260200191508051906020019080838360005b83811015611fc7578082015181840152602081019050611fac565b50505050905090810190601f168015611ff45780820380516001836020036101000a031916815260200191505b509250505060405180910390fd5b505b5050565b3273ffffffffffffffffffffffffffffffffffffffff163373ffffffffffffffffffffffffffffffffffffffff16146120a9576040517f08c379a000000000000000000000000000000000000000000000000000000000815260040180806020018281038252600b8152602001807f6f726967696e206f6e6c7900000000000000000000000000000000000000000081525060200191505060405180910390fd5b60006120d684600333868660405180838380828437808301925050509250505060405180910390206134d1565b90503373ffffffffffffffffffffffffffffffffffffffff16600360ff168573ffffffffffffffffffffffffffffffffffffffff167fe923069519faf69b0726ed766a213f61b6f07f2ecf11d55582cc440d8806b0bc846040518082815260200191505060405180910390a450505050565b60008060007fc5d2460186f7233c927e7db2dcc703c0e500b653ca82273b7bfad8045d85a47060001b9050833f915080821415801561218a57506000801b8214155b92505050919050565b6000600260008473ffffffffffffffffffffffffffffffffffffffff1673ffffffffffffffffffffffffffffffffffffffff1681526020019081526020016000209050600060028111156121e357fe5b8160010160008473ffffffffffffffffffffffffffffffffffffffff1673ffffffffffffffffffffffffffffffffffffffff16815260200190815260200160002060009054906101000a900460ff16600281111561223d57fe5b146122b0576040517f08c379a00000000000000000000000000000000000000000000000000000000081526004018080602001828103825260108152602001807f6d75737420626520756e7061697265640000000000000000000000000000000081525060200191505060405180910390fd5b8060000160009054906101000a900460ff166124405760018160000160006101000a81548160ff02191690831515021790555060008390508073ffffffffffffffffffffffffffffffffffffffff16639dc29fac308373ffffffffffffffffffffffffffffffffffffffff166370a08231306040518263ffffffff1660e01b8152600401808273ffffffffffffffffffffffffffffffffffffffff1673ffffffffffffffffffffffffffffffffffffffff16815260200191505060206040518083038186803b15801561238257600080fd5b505afa158015612396573d6000803e3d6000fd5b505050506040513d60208110156123ac57600080fd5b81019080805190602001909291905050506040518363ffffffff1660e01b8152600401808373ffffffffffffffffffffffffffffffffffffffff1673ffffffffffffffffffffffffffffffffffffffff16815260200182815260200192505050600060405180830381600087803b15801561242657600080fd5b505af115801561243a573d6000803e3d6000fd5b50505050505b60018160010160008473ffffffffffffffffffffffffffffffffffffffff1673ffffffffffffffffffffffffffffffffffffffff16815260200190815260200160002060006101000a81548160ff0219169083600281111561249e57fe5b0217905550505050565b60006124bd85858585805190602001206134d1565b90508273ffffffffffffffffffffffffffffffffffffffff168460ff168673ffffffffffffffffffffffffffffffffffffffff167f35e48d636f39df5c5ca2278452d6d89bf9f07c2ff15f46d08aa402c46638b88284866040518083815260200180602001828103825283818151815260200191508051906020019080838360005b8381101561255a57808201518184015260208101905061253f565b50505050905090810190601f1680156125875780820380516001836020036101000a031916815260200191505b50935050505060405180910390a45050505050565b346000808373ffffffffffffffffffffffffffffffffffffffff1673ffffffffffffffffffffffffffffffffffffffff1681526020019081526020016000206000828254019250508190555050565b8273ffffffffffffffffffffffffffffffffffffffff166323b872dd3330846040518463ffffffff1660e01b8152600401808473ffffffffffffffffffffffffffffffffffffffff1673ffffffffffffffffffffffffffffffffffffffff1681526020018373ffffffffffffffffffffffffffffffffffffffff1673ffffffffffffffffffffffffffffffffffffffff1681526020018281526020019350505050600060405180830381600087803b1580156126a657600080fd5b505af11580156126ba573d6000803e3d6000fd5b505050506126c9828483613560565b505050565b6000600260008573ffffffffffffffffffffffffffffffffffffffff1673ffffffffffffffffffffffffffffffffffffffff168152602001908152602001600020905060008160000160009054906101000a900460ff1690506000818015612799575060028081111561273d57fe5b8360010160008773ffffffffffffffffffffffffffffffffffffffff1673ffffffffffffffffffffffffffffffffffffffff16815260200190815260200160002060009054906101000a900460ff16600281111561279757fe5b145b9050806127ac576127ab858786613831565b5b8115612856578573ffffffffffffffffffffffffffffffffffffffff16639dc29fac33866040518363ffffffff1660e01b8152600401808373ffffffffffffffffffffffffffffffffffffffff1673ffffffffffffffffffffffffffffffffffffffff16815260200182815260200192505050600060405180830381600087803b15801561283957600080fd5b505af115801561284d573d6000803e3d6000fd5b50505050612a2a565b8573ffffffffffffffffffffffffffffffffffffffff166323b872dd3330876040518463ffffffff1660e01b8152600401808473ffffffffffffffffffffffffffffffffffffffff1673ffffffffffffffffffffffffffffffffffffffff1681526020018373ffffffffffffffffffffffffffffffffffffffff1673ffffffffffffffffffffffffffffffffffffffff1681526020018281526020019350505050602060405180830381600087803b15801561291157600080fd5b505af1158015612925573d6000803e3d6000fd5b505050506040513d602081101561293b57600080fd5b81019080805190602001909291905050506040518060400160405280600f81526020017f4641494c45445f5452414e53464552000000000000000000000000000000000081525090612a28576040517f08c379a00000000000000000000000000000000000000000000000000000000081526004018080602001828103825283818151815260200191508051906020019080838360005b838110156129ed5780820151818401526020810190506129d2565b50505050905090810190601f168015612a1a5780820380516001836020036101000a031916815260200191505b509250505060405180910390fd5b505b505050505050565b600080612a3d614794565b8391506000858381518110612a4e57fe5b602001015160f81c60f81b60f81c905082806001019350506003612a70613a01565b0160ff168160ff1614612a8d576000858393509350935050612b76565b6000612a998785613a0a565b80935081965082975050505084612abb57600086849450945094505050612b76565b80836000019060ff16908160ff16815250506000612ad98886613a0a565b80935081975082985050505085612afc5760008785955095509550505050612b76565b80846020019073ffffffffffffffffffffffffffffffffffffffff16908173ffffffffffffffffffffffffffffffffffffffff1681525050612b3e8886613a99565b8090508660400181905281975082985050505085612b685760008785955095509550505050612b76565b600185859550955095505050505b9250925092565b600060ff16816000015160ff161415612bef576000612b9a6147ce565b612ba78360400151613d72565b9150915081612bb7575050612e03565b6000612bc7826000015186610d55565b9050612bd7826000015186613e17565b612be633828460200151613eae565b50505050612e02565b600160ff16816000015160ff161415612c66576000612c0c6147fe565b612c198360400151613fa3565b9150915081612c29575050612e03565b6000612c39826020015186610d55565b9050612c4f33828460000151856040015161409e565b50612c5e826020015186613e17565b505050612e01565b600260ff16816000015160ff161415612cdd576000612c8361484b565b612c908360400151614229565b9150915081612ca0575050612e03565b6000612cb0826020015186610d55565b9050612cc6338284600001518560400151614324565b50612cd5826020015186613e17565b505050612e00565b600560ff16816000015160ff161415612dff57612d43816020015133600060f81b8460400151600081518110612d0f57fe5b602001015160f81c60f81b7effffffffffffffffffffffffffffffffffffffffffffffffffffffffffffff19161415614356565b806020015173ffffffffffffffffffffffffffffffffffffffff167fa98915d9854858ea787b0abcd4e8e3a96802bc19a25474a8b7017a303628e44482604001516040518080602001828103825283818151815260200191508051906020019080838360005b83811015612dc4578082015181840152602081019050612da9565b50505050905090810190601f168015612df15780820380516001836020036101000a031916815260200191505b509250505060405180910390a25b5b5b5b5b5050565b600080600360008673ffffffffffffffffffffffffffffffffffffffff1673ffffffffffffffffffffffffffffffffffffffff168152602001908152602001600020905060008160000160008673ffffffffffffffffffffffffffffffffffffffff1673ffffffffffffffffffffffffffffffffffffffff1681526020019081526020016000205490506000811415612ea5576000925050506131ca565b6000826001016001830381548110612eb957fe5b9060005260206000209060030201905060008160010160008781526020019081526020016000205490506000811415612ef95760009450505050506131ca565b8082600101600084600201600186600201805490500381548110612f1957fe5b906000526020600020015481526020019081526020016000208190555081600201600183600201805490500381548110612f4f57fe5b9060005260206000200154826002016001830381548110612f6c57fe5b90600052602060002001819055508160010160008781526020019081526020016000206000905581600201805480612fa057fe5b600190038181906000526020600020016000905590556000826002018054905014156131c1578284600001600086600101600188600101805490500381548110612fe657fe5b906000526020600020906003020160000160009054906101000a900473ffffffffffffffffffffffffffffffffffffffff1673ffffffffffffffffffffffffffffffffffffffff1673ffffffffffffffffffffffffffffffffffffffff168152602001908152602001600020819055508360010160018560010180549050038154811061306f57fe5b906000526020600020906003020184600101600185038154811061308f57fe5b90600052602060002090600302016000820160009054906101000a900473ffffffffffffffffffffffffffffffffffffffff168160000160006101000a81548173ffffffffffffffffffffffffffffffffffffffff021916908373ffffffffffffffffffffffffffffffffffffffff160217905550600282018160020190805461311a929190614898565b509050508360000160008873ffffffffffffffffffffffffffffffffffffffff1673ffffffffffffffffffffffffffffffffffffffff168152602001908152602001600020600090558360010180548061317057fe5b6001900381819060005260206000209060030201600080820160006101000a81549073ffffffffffffffffffffffffffffffffffffffff02191690556002820160006131bc91906148ea565b505090555b60019450505050505b9392505050565b6000808214156131e457600190506134ca565b6000600160008673ffffffffffffffffffffffffffffffffffffffff1673ffffffffffffffffffffffffffffffffffffffff168152602001908152602001600020905060008160000160008673ffffffffffffffffffffffffffffffffffffffff1673ffffffffffffffffffffffffffffffffffffffff1681526020019081526020016000205490506000811415613281576000925050506134ca565b600082600101600183038154811061329557fe5b9060005260206000209060020201905080600101548511156132bd57600093505050506134ca565b8481600101600082825403925050819055506000816001015414156134c25781836000016000856001016001876001018054905003815481106132fc57fe5b906000526020600020906002020160000160009054906101000a900473ffffffffffffffffffffffffffffffffffffffff1673ffffffffffffffffffffffffffffffffffffffff1673ffffffffffffffffffffffffffffffffffffffff168152602001908152602001600020819055508260010160018460010180549050038154811061338557fe5b90600052602060002090600202018360010160018403815481106133a557fe5b90600052602060002090600202016000820160009054906101000a900473ffffffffffffffffffffffffffffffffffffffff168160000160006101000a81548173ffffffffffffffffffffffffffffffffffffffff021916908373ffffffffffffffffffffffffffffffffffffffff160217905550600182015481600101559050508260000160008773ffffffffffffffffffffffffffffffffffffffff1673ffffffffffffffffffffffffffffffffffffffff168152602001908152602001600020600090558260010180548061347957fe5b6001900381819060005260206000209060020201600080820160006101000a81549073ffffffffffffffffffffffffffffffffffffffff02191690556001820160009055505090555b600193505050505b9392505050565b600080600560008773ffffffffffffffffffffffffffffffffffffffff1673ffffffffffffffffffffffffffffffffffffffff1681526020019081526020016000209050600060018260010154019050600061353187874342868a6144e4565b9050613541836000015482614579565b8360000181905550818360010181905550819350505050949350505050565b6000600360008573ffffffffffffffffffffffffffffffffffffffff1673ffffffffffffffffffffffffffffffffffffffff168152602001908152602001600020905060008160000160008573ffffffffffffffffffffffffffffffffffffffff1673ffffffffffffffffffffffffffffffffffffffff168152602001908152602001600020549050600081141561372b578160010160405180604001604052808673ffffffffffffffffffffffffffffffffffffffff168152602001600060405190808252806020026020018201604052801561364d5781602001602082028038833980820191505090505b508152509080600181540180825580915050906001820390600052602060002090600302016000909192909190915060008201518160000160006101000a81548173ffffffffffffffffffffffffffffffffffffffff021916908373ffffffffffffffffffffffffffffffffffffffff16021790555060208201518160020190805190602001906136df92919061490b565b5050509050808260000160008673ffffffffffffffffffffffffffffffffffffffff1673ffffffffffffffffffffffffffffffffffffffff168152602001908152602001600020819055505b600082600101600183038154811061373f57fe5b90600052602060002090600302019050600081600101600086815260200190815260200160002054146137da576040517f08c379a000000000000000000000000000000000000000000000000000000000815260040180806020018281038252601d8152602001807f63616e27742061646420616c7265616479206f776e656420746f6b656e00000081525060200191505060405180910390fd5b80600201849080600181540180825580915050906001820390600052602060002001600090919290919091505550806002018054905081600101600086815260200190815260200160002081905550505050505050565b600081141561383f576139fc565b6000600160008573ffffffffffffffffffffffffffffffffffffffff1673ffffffffffffffffffffffffffffffffffffffff168152602001908152602001600020905060008160000160008573ffffffffffffffffffffffffffffffffffffffff1673ffffffffffffffffffffffffffffffffffffffff16815260200190815260200160002054905060008114156139c8578160010160405180604001604052808673ffffffffffffffffffffffffffffffffffffffff16815260200160008152509080600181540180825580915050906001820390600052602060002090600202016000909192909190915060008201518160000160006101000a81548173ffffffffffffffffffffffffffffffffffffffff021916908373ffffffffffffffffffffffffffffffffffffffff1602179055506020820151816001015550509050808260000160008673ffffffffffffffffffffffffffffffffffffffff1673ffffffffffffffffffffffffffffffffffffffff168152602001908152602001600020819055505b828260010160018303815481106139db57fe5b90600052602060002090600202016001016000828254019250508190555050505b505050565b60006003905090565b6000806000808551905084811080613a2457506021858203105b80613a555750613a326145b2565b60ff16868681518110613a4157fe5b602001015160f81c60f81b60f81c60ff1614155b15613a6e57600085600080905093509350935050613a92565b600160218601613a8a60018801896145ba90919063ffffffff16565b935093509350505b9250925092565b60008060606000613aaa868661464b565b80935081955082965050505083613acb576000838393509350935050613d6b565b600060208281613ad757fe5b049050600060208381613ae657fe5b0690506000808211613af9576000613afc565b60015b60ff1683019050606083604051908082528060200260200182016040528015613b345781602001602082028038833980820191505090505b5090506060836040519080825280601f01601f191660200182016040528015613b6c5781602001600182028038833980820191505090505b509050600080905060008090505b84811015613c79576000613b8e8e8c61464b565b809350819d50829e505050508b613bb75760008b8b9b509b509b50505050505050505050613d6b565b600082148015613bc75750600087115b15613c415760008160001b905060008090505b88811015613c3a57818160208110613bee57fe5b1a60f81b868281518110613bfe57fe5b60200101907effffffffffffffffffffffffffffffffffffffffffffffffffffffffffffff1916908160001a9053508080600101915050613bda565b5050613c6b565b8060001b858460018b030381518110613c5657fe5b60200260200101818152505082806001019350505b508080600101915050613b7a565b506000613c868d8b6146c8565b809250819b505050613c96613a01565b60ff168160ff1614613cb95760008a8a9a509a509a505050505050505050613d6b565b60018a858560405160200180838051906020019060200280838360005b83811015613cf1578082015181840152602081019050613cd6565b5050505090500182805190602001908083835b60208310613d275780518252602082019150602081019050602083039250613d04565b6001836020036101000a038019825116818451168082178552505050505050905001925050506040516020818303038152906040529a509a509a5050505050505050505b9250925092565b6000613d7c6147ce565b603483511015613d925760008191509150613e12565b6000809050600c81019050613db081856146f490919063ffffffff16565b826000019073ffffffffffffffffffffffffffffffffffffffff16908173ffffffffffffffffffffffffffffffffffffffff1681525050601481019050613e0081856145ba90919063ffffffff16565b82602001818152505060018292509250505b915091565b600460008284604051602001808381526020018273ffffffffffffffffffffffffffffffffffffffff1673ffffffffffffffffffffffffffffffffffffffff1660601b81526014019250505060405160208183030381529060405280519060200120815260200190815260200160002060006101000a81549073ffffffffffffffffffffffffffffffffffffffff02191690555050565b60008060008573ffffffffffffffffffffffffffffffffffffffff1673ffffffffffffffffffffffffffffffffffffffff16815260200190815260200160002054821115613eff5760009050613f9c565b816000808673ffffffffffffffffffffffffffffffffffffffff1673ffffffffffffffffffffffffffffffffffffffff16815260200190815260200160002060008282540392505081905550816000808573ffffffffffffffffffffffffffffffffffffffff1673ffffffffffffffffffffffffffffffffffffffff16815260200190815260200160002060008282540192505081905550600190505b9392505050565b6000613fad6147fe565b604883511015613fc35760008191509150614099565b6000809050600c81019050613fe181856146f490919063ffffffff16565b826000019073ffffffffffffffffffffffffffffffffffffffff16908173ffffffffffffffffffffffffffffffffffffffff1681525050601481019050600c8101905061403781856146f490919063ffffffff16565b826020019073ffffffffffffffffffffffffffffffffffffffff16908173ffffffffffffffffffffffffffffffffffffffff168152505060148101905061408781856145ba90919063ffffffff16565b82604001818152505060018292509250505b915091565b600080600260008573ffffffffffffffffffffffffffffffffffffffff1673ffffffffffffffffffffffffffffffffffffffff168152602001908152602001600020905060008160000160009054906101000a900460ff169050600081801561416a575060028081111561410e57fe5b8360010160008a73ffffffffffffffffffffffffffffffffffffffff1673ffffffffffffffffffffffffffffffffffffffff16815260200190815260200160002060009054906101000a900460ff16600281111561416857fe5b145b90508015801561418257506141808887876131d1565b155b156141935760009350505050614221565b600082801561420557506002808111156141a957fe5b8460010160008a73ffffffffffffffffffffffffffffffffffffffff1673ffffffffffffffffffffffffffffffffffffffff16815260200190815260200160002060009054906101000a900460ff16600281111561420357fe5b145b90508061421857614217888888613831565b5b60019450505050505b949350505050565b600061423361484b565b604883511015614249576000819150915061431f565b6000809050600c8101905061426781856146f490919063ffffffff16565b826000019073ffffffffffffffffffffffffffffffffffffffff16908173ffffffffffffffffffffffffffffffffffffffff1681525050601481019050600c810190506142bd81856146f490919063ffffffff16565b826020019073ffffffffffffffffffffffffffffffffffffffff16908173ffffffffffffffffffffffffffffffffffffffff168152505060148101905061430d81856145ba90919063ffffffff16565b82604001818152505060018292509250505b915091565b6000614331858484612e07565b61433e576000905061434e565b614349848484613560565b600190505b949350505050565b6000600260008573ffffffffffffffffffffffffffffffffffffffff1673ffffffffffffffffffffffffffffffffffffffff1681526020019081526020016000209050600160028111156143a657fe5b8160010160008573ffffffffffffffffffffffffffffffffffffffff1673ffffffffffffffffffffffffffffffffffffffff16815260200190815260200160002060009054906101000a900460ff16600281111561440057fe5b1461440b57506144df565b81156144795760028160010160008573ffffffffffffffffffffffffffffffffffffffff1673ffffffffffffffffffffffffffffffffffffffff16815260200190815260200160002060006101000a81548160ff0219169083600281111561446f57fe5b02179055506144dd565b60008160010160008573ffffffffffffffffffffffffffffffffffffffff1673ffffffffffffffffffffffffffffffffffffffff16815260200190815260200160002060006101000a81548160ff021916908360028111156144d757fe5b02179055505b505b505050565b6000868686868686604051602001808760ff1660ff1660f81b81526001018673ffffffffffffffffffffffffffffffffffffffff1673ffffffffffffffffffffffffffffffffffffffff1660601b815260140185815260200184815260200183815260200182815260200196505050505050506040516020818303038152906040528051906020012090509695505050505050565b60008282604051602001808381526020018281526020019250505060405160208183030381529060405280519060200120905092915050565b600080905090565b60006020820183511015614636576040517f08c379a00000000000000000000000000000000000000000000000000000000081526004018080602001828103825260128152602001807f52656164206f7574206f6620626f756e6473000000000000000000000000000081525060200191505060405180910390fd5b60008260208501015190508091505092915050565b60008060008061465b86866146c8565b8092508194505050600261466d613a01565b0160ff168160ff161461468a5760008383935093509350506146c1565b6146948684613a0a565b809450819550829650505050836146b55760008383935093509350506146c1565b60018383935093509350505b9250925092565b600080600183018484815181106146db57fe5b602001015160f81c60f81b60f81c915091509250929050565b60006014820183511015614770576040517f08c379a00000000000000000000000000000000000000000000000000000000081526004018080602001828103825260128152602001807f52656164206f7574206f6620626f756e6473000000000000000000000000000081525060200191505060405180910390fd5b60006c01000000000000000000000000836020860101510490508091505092915050565b6040518060600160405280600060ff168152602001600073ffffffffffffffffffffffffffffffffffffffff168152602001606081525090565b6040518060400160405280600073ffffffffffffffffffffffffffffffffffffffff168152602001600081525090565b6040518060600160405280600073ffffffffffffffffffffffffffffffffffffffff168152602001600073ffffffffffffffffffffffffffffffffffffffff168152602001600081525090565b6040518060600160405280600073ffffffffffffffffffffffffffffffffffffffff168152602001600073ffffffffffffffffffffffffffffffffffffffff168152602001600081525090565b8280548282559060005260206000209081019282156148d95760005260206000209182015b828111156148d85782548255916001019190600101906148bd565b5b5090506148e69190614958565b5090565b50805460008255906000526020600020908101906149089190614958565b50565b828054828255906000526020600020908101928215614947579160200282015b8281111561494657825182559160200191906001019061492b565b5b5090506149549190614958565b5090565b61497a91905b8082111561497657600081600090555060010161495e565b5090565b9056fea265627a7a7231582047fccdaf3384befdc58965f608d179fb664b8ede71ebedba4e64d009aea6d4e264736f6c63430005100032",
  "linkReferences": {},
  "deployedLinkReferences": {}
}